{
  "_format": "hh-sol-artifact-1",
  "contractName": "WiFiBilling",
  "sourceName": "contracts/wiFiBilling.sol",
  "abi": [
    {
      "inputs": [],
      "stateMutability": "nonpayable",
      "type": "constructor"
    },
    {
      "anonymous": false,
      "inputs": [
        {
          "indexed": true,
          "internalType": "address",
          "name": "user",
          "type": "address"
        },
        {
          "indexed": false,
          "internalType": "uint256",
          "name": "usageMB",
          "type": "uint256"
        },
        {
          "indexed": false,
          "internalType": "uint256",
          "name": "timestamp",
          "type": "uint256"
        }
      ],
      "name": "DataUsageLogged",
      "type": "event"
    },
    {
      "anonymous": false,
      "inputs": [
        {
          "indexed": true,
          "internalType": "address",
          "name": "user",
          "type": "address"
        },
        {
          "indexed": false,
          "internalType": "uint256",
          "name": "amount",
          "type": "uint256"
        },
        {
          "indexed": false,
          "internalType": "uint256",
          "name": "timestamp",
          "type": "uint256"
        },
        {
          "indexed": false,
          "internalType": "string",
          "name": "status",
          "type": "string"
        }
      ],
      "name": "PaymentMade",
      "type": "event"
    },
    {
      "anonymous": false,
      "inputs": [
        {
          "indexed": false,
          "internalType": "uint256",
          "name": "id",
          "type": "uint256"
        },
        {
          "indexed": false,
          "internalType": "string",
          "name": "name",
          "type": "string"
        },
        {
          "indexed": false,
          "internalType": "string",
          "name": "duration",
          "type": "string"
        },
        {
          "indexed": false,
          "internalType": "uint256",
          "name": "priceKes",
          "type": "uint256"
        },
        {
          "indexed": false,
          "internalType": "uint256",
          "name": "dataMb",
          "type": "uint256"
        }
      ],
      "name": "PlanCreated",
      "type": "event"
    },
    {
      "anonymous": false,
      "inputs": [
        {
          "indexed": true,
          "internalType": "address",
          "name": "user",
          "type": "address"
        },
        {
          "indexed": false,
          "internalType": "uint256",
          "name": "planId",
          "type": "uint256"
        },
        {
          "indexed": false,
          "internalType": "uint256",
          "name": "priceKes",
          "type": "uint256"
        }
      ],
      "name": "PlanPurchased",
      "type": "event"
    },
    {
      "anonymous": false,
      "inputs": [
        {
          "indexed": true,
          "internalType": "address",
          "name": "user",
          "type": "address"
        },
        {
          "indexed": false,
          "internalType": "bool",
          "name": "success",
          "type": "bool"
        },
        {
          "indexed": false,
          "internalType": "string",
          "name": "reason",
          "type": "string"
        }
      ],
      "name": "RegistrationAttempt",
      "type": "event"
    },
    {
      "anonymous": false,
      "inputs": [
        {
          "indexed": true,
          "internalType": "address",
          "name": "user",
          "type": "address"
        },
        {
          "indexed": false,
          "internalType": "uint256",
          "name": "amount",
          "type": "uint256"
        }
      ],
      "name": "TokensMinted",
      "type": "event"
    },
    {
      "anonymous": false,
      "inputs": [
        {
          "indexed": true,
          "internalType": "address",
          "name": "user",
          "type": "address"
        }
      ],
      "name": "UserRegistered",
      "type": "event"
    },
    {
      "inputs": [],
      "name": "costPerMB",
      "outputs": [
        {
          "internalType": "uint256",
          "name": "",
          "type": "uint256"
        }
      ],
      "stateMutability": "view",
      "type": "function"
    },
    {
      "inputs": [
        {
          "internalType": "string",
          "name": "name",
          "type": "string"
        },
        {
          "internalType": "string",
          "name": "duration",
          "type": "string"
        },
        {
          "internalType": "uint256",
          "name": "priceKes",
          "type": "uint256"
        },
        {
          "internalType": "uint256",
          "name": "dataMb",
          "type": "uint256"
        }
      ],
      "name": "createWiFiPlan",
      "outputs": [],
      "stateMutability": "nonpayable",
      "type": "function"
    },
    {
      "inputs": [
        {
          "internalType": "address",
          "name": "",
          "type": "address"
        },
        {
          "internalType": "uint256",
          "name": "",
          "type": "uint256"
        }
      ],
      "name": "dataUsages",
      "outputs": [
        {
          "internalType": "uint256",
          "name": "usageMB",
          "type": "uint256"
        },
        {
          "internalType": "uint256",
          "name": "timestamp",
          "type": "uint256"
        }
      ],
      "stateMutability": "view",
      "type": "function"
    },
    {
      "inputs": [
        {
          "internalType": "uint256",
          "name": "planId",
          "type": "uint256"
        }
      ],
      "name": "deactivateWiFiPlan",
      "outputs": [],
      "stateMutability": "nonpayable",
      "type": "function"
    },
    {
      "inputs": [
        {
          "internalType": "address",
          "name": "user",
          "type": "address"
        }
      ],
      "name": "generateBillingReport",
      "outputs": [
        {
          "internalType": "uint256",
          "name": "totalUsage",
          "type": "uint256"
        },
        {
          "internalType": "uint256",
          "name": "totalCost",
          "type": "uint256"
        }
      ],
      "stateMutability": "view",
      "type": "function"
    },
    {
      "inputs": [],
      "name": "getActivePlans",
      "outputs": [
        {
          "components": [
            {
              "internalType": "uint256",
              "name": "id",
              "type": "uint256"
            },
            {
              "internalType": "string",
              "name": "name",
              "type": "string"
            },
            {
              "internalType": "string",
              "name": "duration",
              "type": "string"
            },
            {
              "internalType": "uint256",
              "name": "priceKes",
              "type": "uint256"
            },
            {
              "internalType": "uint256",
              "name": "dataMb",
              "type": "uint256"
            },
            {
              "internalType": "bool",
              "name": "active",
              "type": "bool"
            }
          ],
          "internalType": "struct WiFiBilling.WiFiPlan[]",
          "name": "",
          "type": "tuple[]"
        }
      ],
      "stateMutability": "view",
      "type": "function"
    },
    {
      "inputs": [
        {
          "internalType": "address",
          "name": "user",
          "type": "address"
        }
      ],
      "name": "getDataUsage",
      "outputs": [
        {
          "components": [
            {
              "internalType": "uint256",
              "name": "usageMB",
              "type": "uint256"
            },
            {
              "internalType": "uint256",
              "name": "timestamp",
              "type": "uint256"
            }
          ],
          "internalType": "struct WiFiBilling.DataUsage[]",
          "name": "",
          "type": "tuple[]"
        }
      ],
      "stateMutability": "view",
      "type": "function"
    },
    {
      "inputs": [
        {
          "internalType": "address",
          "name": "userAddress",
          "type": "address"
        }
      ],
      "name": "getPurchasedPlans",
      "outputs": [
        {
          "components": [
            {
              "internalType": "uint256",
              "name": "id",
              "type": "uint256"
            },
            {
              "internalType": "string",
              "name": "name",
              "type": "string"
            },
            {
              "internalType": "string",
              "name": "duration",
              "type": "string"
            },
            {
              "internalType": "uint256",
              "name": "priceKes",
              "type": "uint256"
            },
            {
              "internalType": "uint256",
              "name": "dataMb",
              "type": "uint256"
            },
            {
              "internalType": "bool",
              "name": "active",
              "type": "bool"
            }
          ],
          "internalType": "struct WiFiBilling.WiFiPlan[]",
          "name": "",
          "type": "tuple[]"
        }
      ],
      "stateMutability": "view",
      "type": "function"
    },
    {
      "inputs": [
        {
          "internalType": "address",
          "name": "user",
          "type": "address"
        }
      ],
      "name": "getTransactions",
      "outputs": [
        {
          "components": [
            {
              "internalType": "uint256",
              "name": "id",
              "type": "uint256"
            },
            {
              "internalType": "uint256",
              "name": "amount",
              "type": "uint256"
            },
            {
              "internalType": "uint256",
              "name": "timestamp",
              "type": "uint256"
            },
            {
              "internalType": "string",
              "name": "status",
              "type": "string"
            }
          ],
          "internalType": "struct WiFiBilling.Transaction[]",
          "name": "",
          "type": "tuple[]"
        }
      ],
      "stateMutability": "view",
      "type": "function"
    },
    {
      "inputs": [
        {
          "internalType": "address",
          "name": "userAddress",
          "type": "address"
        }
      ],
      "name": "isUserRegistered",
      "outputs": [
        {
          "internalType": "bool",
          "name": "",
          "type": "bool"
        }
      ],
      "stateMutability": "view",
      "type": "function"
    },
    {
      "inputs": [],
      "name": "isp",
      "outputs": [
        {
          "internalType": "address",
          "name": "",
          "type": "address"
        }
      ],
      "stateMutability": "view",
      "type": "function"
    },
    {
      "inputs": [
        {
          "internalType": "uint256",
          "name": "usageMB",
          "type": "uint256"
        }
      ],
      "name": "logDataUsage",
      "outputs": [],
      "stateMutability": "nonpayable",
      "type": "function"
    },
    {
      "inputs": [
        {
          "internalType": "address",
          "name": "user",
          "type": "address"
        },
        {
          "internalType": "uint256",
          "name": "usageMB",
          "type": "uint256"
        }
      ],
      "name": "logDataUsageByISP",
      "outputs": [],
      "stateMutability": "nonpayable",
      "type": "function"
    },
    {
      "inputs": [
        {
          "internalType": "uint256",
          "name": "usageMB",
          "type": "uint256"
        }
      ],
      "name": "makePayment",
      "outputs": [
        {
          "internalType": "uint256",
          "name": "",
          "type": "uint256"
        }
      ],
      "stateMutability": "nonpayable",
      "type": "function"
    },
    {
      "inputs": [
        {
          "internalType": "address",
          "name": "user",
          "type": "address"
        },
        {
          "internalType": "uint256",
          "name": "amount",
          "type": "uint256"
        }
      ],
      "name": "mintTokens",
      "outputs": [],
      "stateMutability": "nonpayable",
      "type": "function"
    },
    {
      "inputs": [],
      "name": "planCount",
      "outputs": [
        {
          "internalType": "uint256",
          "name": "",
          "type": "uint256"
        }
      ],
      "stateMutability": "view",
      "type": "function"
    },
    {
      "inputs": [
        {
          "internalType": "uint256",
          "name": "planId",
          "type": "uint256"
        }
      ],
      "name": "purchasePlan",
      "outputs": [],
      "stateMutability": "nonpayable",
      "type": "function"
    },
    {
      "inputs": [],
      "name": "registerUser",
      "outputs": [],
      "stateMutability": "nonpayable",
      "type": "function"
    },
    {
      "inputs": [
        {
          "internalType": "address",
          "name": "user",
          "type": "address"
        }
      ],
      "name": "registerUserByISP",
      "outputs": [],
      "stateMutability": "nonpayable",
      "type": "function"
    },
    {
      "inputs": [
        {
          "internalType": "address",
          "name": "",
          "type": "address"
        }
      ],
      "name": "tokenBalances",
      "outputs": [
        {
          "internalType": "uint256",
          "name": "",
          "type": "uint256"
        }
      ],
      "stateMutability": "view",
      "type": "function"
    },
    {
      "inputs": [
        {
          "internalType": "address",
          "name": "",
          "type": "address"
        },
        {
          "internalType": "uint256",
          "name": "",
          "type": "uint256"
        }
      ],
      "name": "transactions",
      "outputs": [
        {
          "internalType": "uint256",
          "name": "id",
          "type": "uint256"
        },
        {
          "internalType": "uint256",
          "name": "amount",
          "type": "uint256"
        },
        {
          "internalType": "uint256",
          "name": "timestamp",
          "type": "uint256"
        },
        {
          "internalType": "string",
          "name": "status",
          "type": "string"
        }
      ],
      "stateMutability": "view",
      "type": "function"
    },
    {
      "inputs": [
        {
          "internalType": "address",
          "name": "",
          "type": "address"
        }
      ],
      "name": "users",
      "outputs": [
        {
          "internalType": "bool",
          "name": "isRegistered",
          "type": "bool"
        },
        {
          "internalType": "uint256",
          "name": "totalUsageMb",
          "type": "uint256"
        },
        {
          "internalType": "uint256",
          "name": "totalCostKes",
          "type": "uint256"
        }
      ],
      "stateMutability": "view",
      "type": "function"
    },
    {
      "inputs": [
        {
          "internalType": "uint256",
          "name": "",
          "type": "uint256"
        }
      ],
      "name": "wifiPlans",
      "outputs": [
        {
          "internalType": "uint256",
          "name": "id",
          "type": "uint256"
        },
        {
          "internalType": "string",
          "name": "name",
          "type": "string"
        },
        {
          "internalType": "string",
          "name": "duration",
          "type": "string"
        },
        {
          "internalType": "uint256",
          "name": "priceKes",
          "type": "uint256"
        },
        {
          "internalType": "uint256",
          "name": "dataMb",
          "type": "uint256"
        },
        {
          "internalType": "bool",
          "name": "active",
          "type": "bool"
        }
      ],
      "stateMutability": "view",
      "type": "function"
    }
  ],
  "bytecode": "0x6080604052600160025534801561001557600080fd5b50336000806101000a81548173ffffffffffffffffffffffffffffffffffffffff021916908373ffffffffffffffffffffffffffffffffffffffff1602179055506145b3806100656000396000f3fe608060405234801561001057600080fd5b506004361061014d5760003560e01c806343fe832c116100c3578063abdd3d2d1161007c578063abdd3d2d146103f6578063c3ecbf2c14610414578063ce4e1a3814610430578063d0a01aa314610460578063f063432e1461047c578063f0dda65c146104985761014d565b806343fe832c146103205780634d3820eb1461033e5780635114cb5214610348578063523fba7f146103785780635fe4fcc8146103a8578063a87430ba146103c45761014d565b8063163f752211610115578063163f7522146102205780631e9262191461025057806324dc81e41461028557806329438c30146102a1578063382d39bb146102d25780633fcdbddc146102f05761014d565b806303be1621146101525780630415d282146101705780630f8cda20146101a157806311514651146101d157806314538128146101ed575b600080fd5b61015a6104b4565b6040516101679190613c90565b60405180910390f35b61018a600480360381019061018591906132a4565b6104d8565b6040516101989291906140de565b60405180910390f35b6101bb60048036038101906101b691906132a4565b6105cb565b6040516101c89190613ccd565b60405180910390f35b6101eb60048036038101906101e691906132a4565b610719565b005b610207600480360381019061020291906132cd565b610a0e565b6040516102179493929190614143565b60405180910390f35b61023a600480360381019061023591906132a4565b610ae3565b6040516102479190613d11565b60405180910390f35b61026a6004803603810190610265919061339c565b610b3c565b60405161027c9695949392919061406f565b60405180910390f35b61029f600480360381019061029a919061339c565b610c95565b005b6102bb60048036038101906102b691906132cd565b610fe9565b6040516102c99291906140de565b60405180910390f35b6102da61102a565b6040516102e79190613ff3565b60405180910390f35b61030a600480360381019061030591906132a4565b611030565b6040516103179190613cef565b60405180910390f35b6103286113fe565b6040516103359190613cef565b60405180910390f35b610346611700565b005b610362600480360381019061035d919061339c565b611966565b60405161036f9190613ff3565b60405180910390f35b610392600480360381019061038d91906132a4565b611e68565b60405161039f9190613ff3565b60405180910390f35b6103c260048036038101906103bd91906132cd565b611e80565b005b6103de60048036038101906103d991906132a4565b612263565b6040516103ed93929190613e9c565b60405180910390f35b6103fe61229a565b60405161040b9190613ff3565b60405180910390f35b61042e6004803603810190610429919061339c565b6122a0565b005b61044a600480360381019061044591906132a4565b6123ba565b6040516104579190613cab565b60405180910390f35b61047a60048036038101906104759190613309565b61246c565b005b6104966004803603810190610491919061339c565b612729565b005b6104b260048036038101906104ad91906132cd565b612da5565b005b60008054906101000a900473ffffffffffffffffffffffffffffffffffffffff1681565b600080600660008473ffffffffffffffffffffffffffffffffffffffff1673ffffffffffffffffffffffffffffffffffffffff16815260200190815260200160002060000160009054906101000a900460ff1661053b57600080915091506105c6565b600660008473ffffffffffffffffffffffffffffffffffffffff1673ffffffffffffffffffffffffffffffffffffffff16815260200190815260200160002060010154600660008573ffffffffffffffffffffffffffffffffffffffff1673ffffffffffffffffffffffffffffffffffffffff16815260200190815260200160002060020154915091505b915091565b6060600560008373ffffffffffffffffffffffffffffffffffffffff1673ffffffffffffffffffffffffffffffffffffffff168152602001908152602001600020805480602002602001604051908101604052809291908181526020016000905b8282101561070e578382906000526020600020906004020160405180608001604052908160008201548152602001600182015481526020016002820154815260200160038201805461067d90614436565b80601f01602080910402602001604051908101604052809291908181526020018280546106a990614436565b80156106f65780601f106106cb576101008083540402835291602001916106f6565b820191906000526020600020905b8154815290600101906020018083116106d957829003601f168201915b5050505050815250508152602001906001019061062c565b505050509050919050565b60008054906101000a900473ffffffffffffffffffffffffffffffffffffffff1673ffffffffffffffffffffffffffffffffffffffff163373ffffffffffffffffffffffffffffffffffffffff16146107a7576040517f08c379a000000000000000000000000000000000000000000000000000000000815260040161079e90613fd3565b60405180910390fd5b600660008273ffffffffffffffffffffffffffffffffffffffff1673ffffffffffffffffffffffffffffffffffffffff16815260200190815260200160002060000160009054906101000a900460ff1615610850578073ffffffffffffffffffffffffffffffffffffffff167f58335945fa18bcf351e4e242d121cf2a6ea06da806dd0d1599092e1ba9b5f74960006040516108439190613de4565b60405180910390a2610a0b565b60405180608001604052806001151581526020016000815260200160008152602001600067ffffffffffffffff8111156108b3577f4e487b7100000000000000000000000000000000000000000000000000000000600052604160045260246000fd5b6040519080825280602002602001820160405280156108e15781602001602082028036833780820191505090505b50815250600660008373ffffffffffffffffffffffffffffffffffffffff1673ffffffffffffffffffffffffffffffffffffffff16815260200190815260200160002060008201518160000160006101000a81548160ff021916908315150217905550602082015181600101556040820151816002015560608201518160030190805190602001906109749291906130ea565b509050508073ffffffffffffffffffffffffffffffffffffffff167f54db7a5cb4735e1aac1f53db512d3390390bb6637bd30ad4bf9fc98667d9b9b960405160405180910390a28073ffffffffffffffffffffffffffffffffffffffff167f58335945fa18bcf351e4e242d121cf2a6ea06da806dd0d1599092e1ba9b5f7496001604051610a029190613e40565b60405180910390a25b50565b60056020528160005260406000208181548110610a2a57600080fd5b906000526020600020906004020160009150915050806000015490806001015490806002015490806003018054610a6090614436565b80601f0160208091040260200160405190810160405280929190818152602001828054610a8c90614436565b8015610ad95780601f10610aae57610100808354040283529160200191610ad9565b820191906000526020600020905b815481529060010190602001808311610abc57829003601f168201915b5050505050905084565b6000600660008373ffffffffffffffffffffffffffffffffffffffff1673ffffffffffffffffffffffffffffffffffffffff16815260200190815260200160002060000160009054906101000a900460ff169050919050565b6007602052806000526040600020600091509050806000015490806001018054610b6590614436565b80601f0160208091040260200160405190810160405280929190818152602001828054610b9190614436565b8015610bde5780601f10610bb357610100808354040283529160200191610bde565b820191906000526020600020905b815481529060010190602001808311610bc157829003601f168201915b505050505090806002018054610bf390614436565b80601f0160208091040260200160405190810160405280929190818152602001828054610c1f90614436565b8015610c6c5780601f10610c4157610100808354040283529160200191610c6c565b820191906000526020600020905b815481529060010190602001808311610c4f57829003601f168201915b5050505050908060030154908060040154908060050160009054906101000a900460ff16905086565b600660003373ffffffffffffffffffffffffffffffffffffffff1673ffffffffffffffffffffffffffffffffffffffff16815260200190815260200160002060000160009054906101000a900460ff16610ea45760405180608001604052806001151581526020016000815260200160008152602001600067ffffffffffffffff811115610d4c577f4e487b7100000000000000000000000000000000000000000000000000000000600052604160045260246000fd5b604051908082528060200260200182016040528015610d7a5781602001602082028036833780820191505090505b50815250600660003373ffffffffffffffffffffffffffffffffffffffff1673ffffffffffffffffffffffffffffffffffffffff16815260200190815260200160002060008201518160000160006101000a81548160ff02191690831515021790555060208201518160010155604082015181600201556060820151816003019080519060200190610e0d9291906130ea565b509050503373ffffffffffffffffffffffffffffffffffffffff167f54db7a5cb4735e1aac1f53db512d3390390bb6637bd30ad4bf9fc98667d9b9b960405160405180910390a23373ffffffffffffffffffffffffffffffffffffffff167f58335945fa18bcf351e4e242d121cf2a6ea06da806dd0d1599092e1ba9b5f7496001604051610e9b9190613db6565b60405180910390a25b6000429050600460003373ffffffffffffffffffffffffffffffffffffffff1673ffffffffffffffffffffffffffffffffffffffff16815260200190815260200160002060405180604001604052808481526020018381525090806001815401808255809150506001900390600052602060002090600202016000909190919091506000820151816000015560208201518160010155505081600660003373ffffffffffffffffffffffffffffffffffffffff1673ffffffffffffffffffffffffffffffffffffffff1681526020019081526020016000206001016000828254610f8e91906142c8565b925050819055503373ffffffffffffffffffffffffffffffffffffffff167ff81cb191cd2bde9d53bb165012a50bfe1f5dbf4a959497583b9c1a9b3713f6868383604051610fdd9291906140de565b60405180910390a25050565b6004602052816000526040600020818154811061100557600080fd5b9060005260206000209060020201600091509150508060000154908060010154905082565b60015481565b6060600660008373ffffffffffffffffffffffffffffffffffffffff1673ffffffffffffffffffffffffffffffffffffffff16815260200190815260200160002060000160009054906101000a900460ff166110c1576040517f08c379a00000000000000000000000000000000000000000000000000000000081526004016110b890613ed3565b60405180910390fd5b6000600660008473ffffffffffffffffffffffffffffffffffffffff1673ffffffffffffffffffffffffffffffffffffffff16815260200190815260200160002060030180548060200260200160405190810160405280929190818152602001828054801561114f57602002820191906000526020600020905b81548152602001906001019080831161113b575b505050505090506000815167ffffffffffffffff811115611199577f4e487b7100000000000000000000000000000000000000000000000000000000600052604160045260246000fd5b6040519080825280602002602001820160405280156111d257816020015b6111bf613137565b8152602001906001900390816111b75790505b50905060005b82518110156113f3576007600084838151811061121e577f4e487b7100000000000000000000000000000000000000000000000000000000600052603260045260246000fd5b602002602001015181526020019081526020016000206040518060c00160405290816000820154815260200160018201805461125990614436565b80601f016020809104026020016040519081016040528092919081815260200182805461128590614436565b80156112d25780601f106112a7576101008083540402835291602001916112d2565b820191906000526020600020905b8154815290600101906020018083116112b557829003601f168201915b505050505081526020016002820180546112eb90614436565b80601f016020809104026020016040519081016040528092919081815260200182805461131790614436565b80156113645780601f1061133957610100808354040283529160200191611364565b820191906000526020600020905b81548152906001019060200180831161134757829003601f168201915b5050505050815260200160038201548152602001600482015481526020016005820160009054906101000a900460ff1615151515815250508282815181106113d5577f4e487b7100000000000000000000000000000000000000000000000000000000600052603260045260246000fd5b602002602001018190525080806113eb90614468565b9150506111d8565b508092505050919050565b6060600080600190505b600154811161145c576007600082815260200190815260200160002060050160009054906101000a900460ff161561144957818061144590614468565b9250505b808061145490614468565b915050611408565b5060008167ffffffffffffffff81111561149f577f4e487b7100000000000000000000000000000000000000000000000000000000600052604160045260246000fd5b6040519080825280602002602001820160405280156114d857816020015b6114c5613137565b8152602001906001900390816114bd5790505b509050600080600190505b60015481116116f6576007600082815260200190815260200160002060050160009054906101000a900460ff16156116e357600760008281526020019081526020016000206040518060c00160405290816000820154815260200160018201805461154d90614436565b80601f016020809104026020016040519081016040528092919081815260200182805461157990614436565b80156115c65780601f1061159b576101008083540402835291602001916115c6565b820191906000526020600020905b8154815290600101906020018083116115a957829003601f168201915b505050505081526020016002820180546115df90614436565b80601f016020809104026020016040519081016040528092919081815260200182805461160b90614436565b80156116585780601f1061162d57610100808354040283529160200191611658565b820191906000526020600020905b81548152906001019060200180831161163b57829003601f168201915b5050505050815260200160038201548152602001600482015481526020016005820160009054906101000a900460ff1615151515815250508383815181106116c9577f4e487b7100000000000000000000000000000000000000000000000000000000600052603260045260246000fd5b602002602001018190525081806116df90614468565b9250505b80806116ee90614468565b9150506114e3565b5081935050505090565b600660003373ffffffffffffffffffffffffffffffffffffffff1673ffffffffffffffffffffffffffffffffffffffff16815260200190815260200160002060000160009054906101000a900460ff16156117a9573373ffffffffffffffffffffffffffffffffffffffff167f58335945fa18bcf351e4e242d121cf2a6ea06da806dd0d1599092e1ba9b5f749600060405161179c9190613de4565b60405180910390a2611964565b60405180608001604052806001151581526020016000815260200160008152602001600067ffffffffffffffff81111561180c577f4e487b7100000000000000000000000000000000000000000000000000000000600052604160045260246000fd5b60405190808252806020026020018201604052801561183a5781602001602082028036833780820191505090505b50815250600660003373ffffffffffffffffffffffffffffffffffffffff1673ffffffffffffffffffffffffffffffffffffffff16815260200190815260200160002060008201518160000160006101000a81548160ff021916908315150217905550602082015181600101556040820151816002015560608201518160030190805190602001906118cd9291906130ea565b509050503373ffffffffffffffffffffffffffffffffffffffff167f54db7a5cb4735e1aac1f53db512d3390390bb6637bd30ad4bf9fc98667d9b9b960405160405180910390a23373ffffffffffffffffffffffffffffffffffffffff167f58335945fa18bcf351e4e242d121cf2a6ea06da806dd0d1599092e1ba9b5f749600160405161195b9190613d2c565b60405180910390a25b565b6000600660003373ffffffffffffffffffffffffffffffffffffffff1673ffffffffffffffffffffffffffffffffffffffff16815260200190815260200160002060000160009054906101000a900460ff16611b775760405180608001604052806001151581526020016000815260200160008152602001600067ffffffffffffffff811115611a1f577f4e487b7100000000000000000000000000000000000000000000000000000000600052604160045260246000fd5b604051908082528060200260200182016040528015611a4d5781602001602082028036833780820191505090505b50815250600660003373ffffffffffffffffffffffffffffffffffffffff1673ffffffffffffffffffffffffffffffffffffffff16815260200190815260200160002060008201518160000160006101000a81548160ff02191690831515021790555060208201518160010155604082015181600201556060820151816003019080519060200190611ae09291906130ea565b509050503373ffffffffffffffffffffffffffffffffffffffff167f54db7a5cb4735e1aac1f53db512d3390390bb6637bd30ad4bf9fc98667d9b9b960405160405180910390a23373ffffffffffffffffffffffffffffffffffffffff167f58335945fa18bcf351e4e242d121cf2a6ea06da806dd0d1599092e1ba9b5f7496001604051611b6e9190613d88565b60405180910390a25b600060025483611b87919061431e565b905080600360003373ffffffffffffffffffffffffffffffffffffffff1673ffffffffffffffffffffffffffffffffffffffff168152602001908152602001600020541015611c0b576040517f08c379a0000000000000000000000000000000000000000000000000000000008152600401611c0290613f33565b60405180910390fd5b80600360003373ffffffffffffffffffffffffffffffffffffffff1673ffffffffffffffffffffffffffffffffffffffff1681526020019081526020016000206000828254611c5a9190614378565b9250508190555080600660003373ffffffffffffffffffffffffffffffffffffffff1673ffffffffffffffffffffffffffffffffffffffff1681526020019081526020016000206002016000828254611cb391906142c8565b92505081905550600042905060006001600560003373ffffffffffffffffffffffffffffffffffffffff1673ffffffffffffffffffffffffffffffffffffffff16815260200190815260200160002080549050611d1091906142c8565b9050600560003373ffffffffffffffffffffffffffffffffffffffff1673ffffffffffffffffffffffffffffffffffffffff16815260200190815260200160002060405180608001604052808381526020018581526020018481526020016040518060400160405280600981526020017f436f6d706c65746564000000000000000000000000000000000000000000000081525081525090806001815401808255809150506001900390600052602060002090600402016000909190919091506000820151816000015560208201518160010155604082015181600201556060820151816003019080519060200190611e0a92919061316f565b5050503373ffffffffffffffffffffffffffffffffffffffff167fd21582b16a4798d84335f2ec99642d982f7a87032039f7b002c00ab51d0251568484604051611e55929190614107565b60405180910390a2809350505050919050565b60036020528060005260406000206000915090505481565b60008054906101000a900473ffffffffffffffffffffffffffffffffffffffff1673ffffffffffffffffffffffffffffffffffffffff163373ffffffffffffffffffffffffffffffffffffffff1614611f0e576040517f08c379a0000000000000000000000000000000000000000000000000000000008152600401611f0590613fd3565b60405180910390fd5b600660008373ffffffffffffffffffffffffffffffffffffffff1673ffffffffffffffffffffffffffffffffffffffff16815260200190815260200160002060000160009054906101000a900460ff1661211d5760405180608001604052806001151581526020016000815260200160008152602001600067ffffffffffffffff811115611fc5577f4e487b7100000000000000000000000000000000000000000000000000000000600052604160045260246000fd5b604051908082528060200260200182016040528015611ff35781602001602082028036833780820191505090505b50815250600660008473ffffffffffffffffffffffffffffffffffffffff1673ffffffffffffffffffffffffffffffffffffffff16815260200190815260200160002060008201518160000160006101000a81548160ff021916908315150217905550602082015181600101556040820151816002015560608201518160030190805190602001906120869291906130ea565b509050508173ffffffffffffffffffffffffffffffffffffffff167f54db7a5cb4735e1aac1f53db512d3390390bb6637bd30ad4bf9fc98667d9b9b960405160405180910390a28173ffffffffffffffffffffffffffffffffffffffff167f58335945fa18bcf351e4e242d121cf2a6ea06da806dd0d1599092e1ba9b5f74960016040516121149190613e12565b60405180910390a25b6000429050600460008473ffffffffffffffffffffffffffffffffffffffff1673ffffffffffffffffffffffffffffffffffffffff16815260200190815260200160002060405180604001604052808481526020018381525090806001815401808255809150506001900390600052602060002090600202016000909190919091506000820151816000015560208201518160010155505081600660008573ffffffffffffffffffffffffffffffffffffffff1673ffffffffffffffffffffffffffffffffffffffff168152602001908152602001600020600101600082825461220791906142c8565b925050819055508273ffffffffffffffffffffffffffffffffffffffff167ff81cb191cd2bde9d53bb165012a50bfe1f5dbf4a959497583b9c1a9b3713f68683836040516122569291906140de565b60405180910390a2505050565b60066020528060005260406000206000915090508060000160009054906101000a900460ff16908060010154908060020154905083565b60025481565b60008054906101000a900473ffffffffffffffffffffffffffffffffffffffff1673ffffffffffffffffffffffffffffffffffffffff163373ffffffffffffffffffffffffffffffffffffffff161461232e576040517f08c379a000000000000000000000000000000000000000000000000000000000815260040161232590613fd3565b60405180910390fd5b600060076000838152602001908152602001600020600001541415612388576040517f08c379a000000000000000000000000000000000000000000000000000000000815260040161237f90613f53565b60405180910390fd5b60006007600083815260200190815260200160002060050160006101000a81548160ff02191690831515021790555050565b6060600460008373ffffffffffffffffffffffffffffffffffffffff1673ffffffffffffffffffffffffffffffffffffffff168152602001908152602001600020805480602002602001604051908101604052809291908181526020016000905b828210156124615783829060005260206000209060020201604051806040016040529081600082015481526020016001820154815250508152602001906001019061241b565b505050509050919050565b60008054906101000a900473ffffffffffffffffffffffffffffffffffffffff1673ffffffffffffffffffffffffffffffffffffffff163373ffffffffffffffffffffffffffffffffffffffff16146124fa576040517f08c379a00000000000000000000000000000000000000000000000000000000081526004016124f190613fd3565b60405180910390fd5b600084511161253e576040517f08c379a000000000000000000000000000000000000000000000000000000000815260040161253590613f73565b60405180910390fd5b6000835111612582576040517f08c379a000000000000000000000000000000000000000000000000000000000815260040161257990613f93565b60405180910390fd5b600082116125c5576040517f08c379a00000000000000000000000000000000000000000000000000000000081526004016125bc90613fb3565b60405180910390fd5b60008111612608576040517f08c379a00000000000000000000000000000000000000000000000000000000081526004016125ff90613f13565b60405180910390fd5b6001600081548092919061261b90614468565b91905055506040518060c0016040528060015481526020018581526020018481526020018381526020018281526020016001151581525060076000600154815260200190815260200160002060008201518160000155602082015181600101908051906020019061268d92919061316f565b5060408201518160020190805190602001906126aa92919061316f565b50606082015181600301556080820151816004015560a08201518160050160006101000a81548160ff0219169083151502179055509050507f4e772ac7aa3047717afa19ba5882a152c3de08139aa134431ff9b3978abb211b6001548585858560405161271b95949392919061400e565b60405180910390a150505050565b600660003373ffffffffffffffffffffffffffffffffffffffff1673ffffffffffffffffffffffffffffffffffffffff16815260200190815260200160002060000160009054906101000a900460ff166129385760405180608001604052806001151581526020016000815260200160008152602001600067ffffffffffffffff8111156127e0577f4e487b7100000000000000000000000000000000000000000000000000000000600052604160045260246000fd5b60405190808252806020026020018201604052801561280e5781602001602082028036833780820191505090505b50815250600660003373ffffffffffffffffffffffffffffffffffffffff1673ffffffffffffffffffffffffffffffffffffffff16815260200190815260200160002060008201518160000160006101000a81548160ff021916908315150217905550602082015181600101556040820151816002015560608201518160030190805190602001906128a19291906130ea565b509050503373ffffffffffffffffffffffffffffffffffffffff167f54db7a5cb4735e1aac1f53db512d3390390bb6637bd30ad4bf9fc98667d9b9b960405160405180910390a23373ffffffffffffffffffffffffffffffffffffffff167f58335945fa18bcf351e4e242d121cf2a6ea06da806dd0d1599092e1ba9b5f749600160405161292f9190613e6e565b60405180910390a25b600060076000838152602001908152602001600020600001541415612992576040517f08c379a000000000000000000000000000000000000000000000000000000000815260040161298990613f53565b60405180910390fd5b6007600082815260200190815260200160002060050160009054906101000a900460ff166129f5576040517f08c379a00000000000000000000000000000000000000000000000000000000081526004016129ec90613ef3565b60405180910390fd5b6007600082815260200190815260200160002060030154600360003373ffffffffffffffffffffffffffffffffffffffff1673ffffffffffffffffffffffffffffffffffffffff168152602001908152602001600020541015612a8d576040517f08c379a0000000000000000000000000000000000000000000000000000000008152600401612a8490613f33565b60405180910390fd5b6007600082815260200190815260200160002060030154600360003373ffffffffffffffffffffffffffffffffffffffff1673ffffffffffffffffffffffffffffffffffffffff1681526020019081526020016000206000828254612af29190614378565b925050819055506007600082815260200190815260200160002060030154600660003373ffffffffffffffffffffffffffffffffffffffff1673ffffffffffffffffffffffffffffffffffffffff1681526020019081526020016000206002016000828254612b6191906142c8565b92505081905550600660003373ffffffffffffffffffffffffffffffffffffffff1673ffffffffffffffffffffffffffffffffffffffff168152602001908152602001600020600301819080600181540180825580915050600190039060005260206000200160009091909190915055600042905060006001600560003373ffffffffffffffffffffffffffffffffffffffff1673ffffffffffffffffffffffffffffffffffffffff16815260200190815260200160002080549050612c2791906142c8565b9050600560003373ffffffffffffffffffffffffffffffffffffffff1673ffffffffffffffffffffffffffffffffffffffff1681526020019081526020016000206040518060800160405280838152602001600760008781526020019081526020016000206003015481526020018481526020016040518060400160405280600981526020017f436f6d706c65746564000000000000000000000000000000000000000000000081525081525090806001815401808255809150506001900390600052602060002090600402016000909190919091506000820151816000015560208201518160010155604082015181600201556060820151816003019080519060200190612d3792919061316f565b5050503373ffffffffffffffffffffffffffffffffffffffff167f9402d84cd24a9cdfd03387a91353d0637f14895d9b5e73854c5cc04631ccc15d846007600087815260200190815260200160002060030154604051612d989291906140de565b60405180910390a2505050565b60008054906101000a900473ffffffffffffffffffffffffffffffffffffffff1673ffffffffffffffffffffffffffffffffffffffff163373ffffffffffffffffffffffffffffffffffffffff1614612e33576040517f08c379a0000000000000000000000000000000000000000000000000000000008152600401612e2a90613fd3565b60405180910390fd5b600660008373ffffffffffffffffffffffffffffffffffffffff1673ffffffffffffffffffffffffffffffffffffffff16815260200190815260200160002060000160009054906101000a900460ff166130425760405180608001604052806001151581526020016000815260200160008152602001600067ffffffffffffffff811115612eea577f4e487b7100000000000000000000000000000000000000000000000000000000600052604160045260246000fd5b604051908082528060200260200182016040528015612f185781602001602082028036833780820191505090505b50815250600660008473ffffffffffffffffffffffffffffffffffffffff1673ffffffffffffffffffffffffffffffffffffffff16815260200190815260200160002060008201518160000160006101000a81548160ff02191690831515021790555060208201518160010155604082015181600201556060820151816003019080519060200190612fab9291906130ea565b509050508173ffffffffffffffffffffffffffffffffffffffff167f54db7a5cb4735e1aac1f53db512d3390390bb6637bd30ad4bf9fc98667d9b9b960405160405180910390a28173ffffffffffffffffffffffffffffffffffffffff167f58335945fa18bcf351e4e242d121cf2a6ea06da806dd0d1599092e1ba9b5f74960016040516130399190613d5a565b60405180910390a25b80600360008473ffffffffffffffffffffffffffffffffffffffff1673ffffffffffffffffffffffffffffffffffffffff168152602001908152602001600020600082825461309191906142c8565b925050819055508173ffffffffffffffffffffffffffffffffffffffff167f3f2c9d57c068687834f0de942a9babb9e5acab57d516d3480a3c16ee165a4273826040516130de9190613ff3565b60405180910390a25050565b828054828255906000526020600020908101928215613126579160200282015b8281111561312557825182559160200191906001019061310a565b5b50905061313391906131f5565b5090565b6040518060c0016040528060008152602001606081526020016060815260200160008152602001600081526020016000151581525090565b82805461317b90614436565b90600052602060002090601f01602090048101928261319d57600085556131e4565b82601f106131b657805160ff19168380011785556131e4565b828001600101855582156131e4579182015b828111156131e35782518255916020019190600101906131c8565b5b5090506131f191906131f5565b5090565b5b8082111561320e5760008160009055506001016131f6565b5090565b6000613225613220846141c0565b61418f565b90508281526020810184848401111561323d57600080fd5b6132488482856143f4565b509392505050565b60008135905061325f8161454f565b92915050565b600082601f83011261327657600080fd5b8135613286848260208601613212565b91505092915050565b60008135905061329e81614566565b92915050565b6000602082840312156132b657600080fd5b60006132c484828501613250565b91505092915050565b600080604083850312156132e057600080fd5b60006132ee85828601613250565b92505060206132ff8582860161328f565b9150509250929050565b6000806000806080858703121561331f57600080fd5b600085013567ffffffffffffffff81111561333957600080fd5b61334587828801613265565b945050602085013567ffffffffffffffff81111561336257600080fd5b61336e87828801613265565b935050604061337f8782880161328f565b92505060606133908782880161328f565b91505092959194509250565b6000602082840312156133ae57600080fd5b60006133bc8482850161328f565b91505092915050565b60006133d18383613b50565b60408301905092915050565b60006133e98383613b7f565b905092915050565b60006133fd8383613be2565b905092915050565b61340e816143ac565b82525050565b600061341f82614220565b6134298185614273565b9350613434836141f0565b8060005b8381101561346557815161344c88826133c5565b97506134578361424c565b925050600181019050613438565b5085935050505092915050565b600061347d8261422b565b6134878185614284565b93508360208202850161349985614200565b8060005b858110156134d557848403895281516134b685826133dd565b94506134c183614259565b925060208a0199505060018101905061349d565b50829750879550505050505092915050565b60006134f282614236565b6134fc8185614295565b93508360208202850161350e85614210565b8060005b8581101561354a578484038952815161352b85826133f1565b945061353683614266565b925060208a01995050600181019050613512565b50829750879550505050505092915050565b613565816143be565b82525050565b613574816143be565b82525050565b600061358582614241565b61358f81856142a6565b935061359f818560208601614403565b6135a88161453e565b840191505092915050565b60006135be82614241565b6135c881856142b7565b93506135d8818560208601614403565b6135e18161453e565b840191505092915050565b60006135f9601c836142b7565b91507f557365722072656769737465726564207375636365737366756c6c79000000006000830152602082019050919050565b60006136396021836142b7565b91507f4175746f2d7265676973746572656420647572696e67206d696e74546f6b656e60008301527f73000000000000000000000000000000000000000000000000000000000000006020830152604082019050919050565b600061369f6009836142b7565b91507f436f6d706c6574656400000000000000000000000000000000000000000000006000830152602082019050919050565b60006136df6013836142b7565b91507f55736572206e6f742072656769737465726564000000000000000000000000006000830152602082019050919050565b600061371f6012836142b7565b91507f506c616e206973206e6f742061637469766500000000000000000000000000006000830152602082019050919050565b600061375f6025836142b7565b91507f4461746120616c6c6f77616e6365206d7573742062652067726561746572207460008301527f68616e20300000000000000000000000000000000000000000000000000000006020830152604082019050919050565b60006137c56022836142b7565b91507f4175746f2d7265676973746572656420647572696e67206d616b655061796d6560008301527f6e740000000000000000000000000000000000000000000000000000000000006020830152604082019050919050565b600061382b6017836142b7565b91507f496e73756666696369656e742057694669546f6b656e730000000000000000006000830152602082019050919050565b600061386b6023836142b7565b91507f4175746f2d7265676973746572656420647572696e67206c6f6744617461557360008301527f61676500000000000000000000000000000000000000000000000000000000006020830152604082019050919050565b60006138d16013836142b7565b91507f506c616e20646f6573206e6f74206578697374000000000000000000000000006000830152602082019050919050565b60006139116019836142b7565b91507f506c616e206e616d652063616e6e6f7420626520656d707479000000000000006000830152602082019050919050565b60006139516017836142b7565b91507f5573657220616c726561647920726567697374657265640000000000000000006000830152602082019050919050565b60006139916028836142b7565b91507f4175746f2d7265676973746572656420647572696e67206c6f6744617461557360008301527f61676542794953500000000000000000000000000000000000000000000000006020830152604082019050919050565b60006139f76018836142b7565b91507f4475726174696f6e2063616e6e6f7420626520656d70747900000000000000006000830152602082019050919050565b6000613a376016836142b7565b91507f55736572207265676973746572656420627920495350000000000000000000006000830152602082019050919050565b6000613a77601c836142b7565b91507f5072696365206d7573742062652067726561746572207468616e2030000000006000830152602082019050919050565b6000613ab7601f836142b7565b91507f4f6e6c79204953502063616e2063616c6c20746869732066756e6374696f6e006000830152602082019050919050565b6000613af76023836142b7565b91507f4175746f2d7265676973746572656420647572696e672070757263686173655060008301527f6c616e00000000000000000000000000000000000000000000000000000000006020830152604082019050919050565b604082016000820151613b666000850182613c72565b506020820151613b796020850182613c72565b50505050565b6000608083016000830151613b976000860182613c72565b506020830151613baa6020860182613c72565b506040830151613bbd6040860182613c72565b5060608301518482036060860152613bd5828261357a565b9150508091505092915050565b600060c083016000830151613bfa6000860182613c72565b5060208301518482036020860152613c12828261357a565b91505060408301518482036040860152613c2c828261357a565b9150506060830151613c416060860182613c72565b506080830151613c546080860182613c72565b5060a0830151613c6760a086018261355c565b508091505092915050565b613c7b816143ea565b82525050565b613c8a816143ea565b82525050565b6000602082019050613ca56000830184613405565b92915050565b60006020820190508181036000830152613cc58184613414565b905092915050565b60006020820190508181036000830152613ce78184613472565b905092915050565b60006020820190508181036000830152613d0981846134e7565b905092915050565b6000602082019050613d26600083018461356b565b92915050565b6000604082019050613d41600083018461356b565b8181036020830152613d52816135ec565b905092915050565b6000604082019050613d6f600083018461356b565b8181036020830152613d808161362c565b905092915050565b6000604082019050613d9d600083018461356b565b8181036020830152613dae816137b8565b905092915050565b6000604082019050613dcb600083018461356b565b8181036020830152613ddc8161385e565b905092915050565b6000604082019050613df9600083018461356b565b8181036020830152613e0a81613944565b905092915050565b6000604082019050613e27600083018461356b565b8181036020830152613e3881613984565b905092915050565b6000604082019050613e55600083018461356b565b8181036020830152613e6681613a2a565b905092915050565b6000604082019050613e83600083018461356b565b8181036020830152613e9481613aea565b905092915050565b6000606082019050613eb1600083018661356b565b613ebe6020830185613c81565b613ecb6040830184613c81565b949350505050565b60006020820190508181036000830152613eec816136d2565b9050919050565b60006020820190508181036000830152613f0c81613712565b9050919050565b60006020820190508181036000830152613f2c81613752565b9050919050565b60006020820190508181036000830152613f4c8161381e565b9050919050565b60006020820190508181036000830152613f6c816138c4565b9050919050565b60006020820190508181036000830152613f8c81613904565b9050919050565b60006020820190508181036000830152613fac816139ea565b9050919050565b60006020820190508181036000830152613fcc81613a6a565b9050919050565b60006020820190508181036000830152613fec81613aaa565b9050919050565b60006020820190506140086000830184613c81565b92915050565b600060a0820190506140236000830188613c81565b818103602083015261403581876135b3565b9050818103604083015261404981866135b3565b90506140586060830185613c81565b6140656080830184613c81565b9695505050505050565b600060c0820190506140846000830189613c81565b818103602083015261409681886135b3565b905081810360408301526140aa81876135b3565b90506140b96060830186613c81565b6140c66080830185613c81565b6140d360a083018461356b565b979650505050505050565b60006040820190506140f36000830185613c81565b6141006020830184613c81565b9392505050565b600060608201905061411c6000830185613c81565b6141296020830184613c81565b818103604083015261413a81613692565b90509392505050565b60006080820190506141586000830187613c81565b6141656020830186613c81565b6141726040830185613c81565b818103606083015261418481846135b3565b905095945050505050565b6000604051905081810181811067ffffffffffffffff821117156141b6576141b561450f565b5b8060405250919050565b600067ffffffffffffffff8211156141db576141da61450f565b5b601f19601f8301169050602081019050919050565b6000819050602082019050919050565b6000819050602082019050919050565b6000819050602082019050919050565b600081519050919050565b600081519050919050565b600081519050919050565b600081519050919050565b6000602082019050919050565b6000602082019050919050565b6000602082019050919050565b600082825260208201905092915050565b600082825260208201905092915050565b600082825260208201905092915050565b600082825260208201905092915050565b600082825260208201905092915050565b60006142d3826143ea565b91506142de836143ea565b9250827fffffffffffffffffffffffffffffffffffffffffffffffffffffffffffffffff03821115614313576143126144b1565b5b828201905092915050565b6000614329826143ea565b9150614334836143ea565b9250817fffffffffffffffffffffffffffffffffffffffffffffffffffffffffffffffff048311821515161561436d5761436c6144b1565b5b828202905092915050565b6000614383826143ea565b915061438e836143ea565b9250828210156143a1576143a06144b1565b5b828203905092915050565b60006143b7826143ca565b9050919050565b60008115159050919050565b600073ffffffffffffffffffffffffffffffffffffffff82169050919050565b6000819050919050565b82818337600083830152505050565b60005b83811015614421578082015181840152602081019050614406565b83811115614430576000848401525b50505050565b6000600282049050600182168061444e57607f821691505b60208210811415614462576144616144e0565b5b50919050565b6000614473826143ea565b91507fffffffffffffffffffffffffffffffffffffffffffffffffffffffffffffffff8214156144a6576144a56144b1565b5b600182019050919050565b7f4e487b7100000000000000000000000000000000000000000000000000000000600052601160045260246000fd5b7f4e487b7100000000000000000000000000000000000000000000000000000000600052602260045260246000fd5b7f4e487b7100000000000000000000000000000000000000000000000000000000600052604160045260246000fd5b6000601f19601f8301169050919050565b614558816143ac565b811461456357600080fd5b50565b61456f816143ea565b811461457a57600080fd5b5056fea2646970667358221220ad8465b57e14705ab4c7a6664314d63e9bd2d5df1766efc3a30343f32d4cb3c764736f6c63430008000033",
  "linkReferences": {},
  "deployedLinkReferences": {}
}