{
  "_format": "hh-sol-artifact-1",
  "contractName": "WiFiBilling",
  "sourceName": "contracts/wiFiBilling.sol",
  "abi": [
    {
      "anonymous": false,
      "inputs": [
        {
          "indexed": true,
          "internalType": "address",
          "name": "user",
          "type": "address"
        },
        {
          "indexed": false,
          "internalType": "uint256",
          "name": "usageMB",
          "type": "uint256"
        },
        {
          "indexed": false,
          "internalType": "uint256",
          "name": "timestamp",
          "type": "uint256"
        }
      ],
      "name": "DataUsageLogged",
      "type": "event"
    },
    {
      "anonymous": false,
      "inputs": [
        {
          "indexed": true,
          "internalType": "address",
          "name": "user",
          "type": "address"
        },
        {
          "indexed": false,
          "internalType": "uint256",
          "name": "amount",
          "type": "uint256"
        },
        {
          "indexed": false,
          "internalType": "uint256",
          "name": "timestamp",
          "type": "uint256"
        },
        {
          "indexed": false,
          "internalType": "string",
          "name": "status",
          "type": "string"
        }
      ],
      "name": "PaymentMade",
      "type": "event"
    },
    {
      "anonymous": false,
      "inputs": [
        {
          "indexed": true,
          "internalType": "address",
          "name": "user",
          "type": "address"
        },
        {
          "indexed": false,
          "internalType": "uint256",
          "name": "amount",
          "type": "uint256"
        }
      ],
      "name": "TokensMinted",
      "type": "event"
    },
    {
      "inputs": [],
      "name": "costPerMB",
      "outputs": [
        {
          "internalType": "uint256",
          "name": "",
          "type": "uint256"
        }
      ],
      "stateMutability": "view",
      "type": "function"
    },
    {
      "inputs": [
        {
          "internalType": "address",
          "name": "",
          "type": "address"
        },
        {
          "internalType": "uint256",
          "name": "",
          "type": "uint256"
        }
      ],
      "name": "dataUsages",
      "outputs": [
        {
          "internalType": "uint256",
          "name": "usageMB",
          "type": "uint256"
        },
        {
          "internalType": "uint256",
          "name": "timestamp",
          "type": "uint256"
        }
      ],
      "stateMutability": "view",
      "type": "function"
    },
    {
      "inputs": [
        {
          "internalType": "address",
          "name": "user",
          "type": "address"
        }
      ],
      "name": "generateBillingReport",
      "outputs": [
        {
          "internalType": "uint256",
          "name": "totalUsage",
          "type": "uint256"
        },
        {
          "internalType": "uint256",
          "name": "totalCost",
          "type": "uint256"
        }
      ],
      "stateMutability": "view",
      "type": "function"
    },
    {
      "inputs": [
        {
          "internalType": "address",
          "name": "user",
          "type": "address"
        }
      ],
      "name": "getDataUsage",
      "outputs": [
        {
          "components": [
            {
              "internalType": "uint256",
              "name": "usageMB",
              "type": "uint256"
            },
            {
              "internalType": "uint256",
              "name": "timestamp",
              "type": "uint256"
            }
          ],
          "internalType": "struct WiFiBilling.DataUsage[]",
          "name": "",
          "type": "tuple[]"
        }
      ],
      "stateMutability": "view",
      "type": "function"
    },
    {
      "inputs": [
        {
          "internalType": "address",
          "name": "user",
          "type": "address"
        }
      ],
      "name": "getTransactions",
      "outputs": [
        {
          "components": [
            {
              "internalType": "uint256",
              "name": "id",
              "type": "uint256"
            },
            {
              "internalType": "uint256",
              "name": "amount",
              "type": "uint256"
            },
            {
              "internalType": "uint256",
              "name": "timestamp",
              "type": "uint256"
            },
            {
              "internalType": "string",
              "name": "status",
              "type": "string"
            }
          ],
          "internalType": "struct WiFiBilling.Transaction[]",
          "name": "",
          "type": "tuple[]"
        }
      ],
      "stateMutability": "view",
      "type": "function"
    },
    {
      "inputs": [
        {
          "internalType": "address",
          "name": "user",
          "type": "address"
        },
        {
          "internalType": "uint256",
          "name": "usageMB",
          "type": "uint256"
        }
      ],
      "name": "logDataUsage",
      "outputs": [],
      "stateMutability": "nonpayable",
      "type": "function"
    },
    {
      "inputs": [
        {
          "internalType": "address",
          "name": "user",
          "type": "address"
        },
        {
          "internalType": "uint256",
          "name": "usageMB",
          "type": "uint256"
        }
      ],
      "name": "makePayment",
      "outputs": [
        {
          "internalType": "uint256",
          "name": "",
          "type": "uint256"
        }
      ],
      "stateMutability": "nonpayable",
      "type": "function"
    },
    {
      "inputs": [
        {
          "internalType": "address",
          "name": "user",
          "type": "address"
        },
        {
          "internalType": "uint256",
          "name": "amount",
          "type": "uint256"
        }
      ],
      "name": "mintTokens",
      "outputs": [],
      "stateMutability": "nonpayable",
      "type": "function"
    },
    {
      "inputs": [
        {
          "internalType": "address",
          "name": "",
          "type": "address"
        }
      ],
      "name": "tokenBalances",
      "outputs": [
        {
          "internalType": "uint256",
          "name": "",
          "type": "uint256"
        }
      ],
      "stateMutability": "view",
      "type": "function"
    },
    {
      "inputs": [
        {
          "internalType": "address",
          "name": "",
          "type": "address"
        },
        {
          "internalType": "uint256",
          "name": "",
          "type": "uint256"
        }
      ],
      "name": "transactions",
      "outputs": [
        {
          "internalType": "uint256",
          "name": "id",
          "type": "uint256"
        },
        {
          "internalType": "uint256",
          "name": "amount",
          "type": "uint256"
        },
        {
          "internalType": "uint256",
          "name": "timestamp",
          "type": "uint256"
        },
        {
          "internalType": "string",
          "name": "status",
          "type": "string"
        }
      ],
      "stateMutability": "view",
      "type": "function"
    }
  ],
  "bytecode": "0x6080604052600160035534801561001557600080fd5b506114dd806100256000396000f3fe608060405234801561001057600080fd5b506004361061009e5760003560e01c8063abdd3d2d11610066578063abdd3d2d14610198578063b1b52d12146101b6578063ce4e1a38146101d2578063f0dda65c14610202578063f98cf07c1461021e5761009e565b80630415d282146100a35780630f8cda20146100d4578063145381281461010457806329438c3014610137578063523fba7f14610168575b600080fd5b6100bd60048036038101906100b89190610d67565b61024e565b6040516100cb9291906110ec565b60405180910390f35b6100ee60048036038101906100e99190610d67565b61053a565b6040516100fb919061108f565b60405180910390f35b61011e60048036038101906101199190610d90565b610688565b60405161012e9493929190611151565b60405180910390f35b610151600480360381019061014c9190610d90565b61075d565b60405161015f9291906110ec565b60405180910390f35b610182600480360381019061017d9190610d67565b61079e565b60405161018f91906110d1565b60405180910390f35b6101a06107b6565b6040516101ad91906110d1565b60405180910390f35b6101d060048036038101906101cb9190610d90565b6107bc565b005b6101ec60048036038101906101e79190610d67565b6108a9565b6040516101f9919061106d565b60405180910390f35b61021c60048036038101906102179190610d90565b61095b565b005b61023860048036038101906102339190610d90565b610a02565b60405161024591906110d1565b60405180910390f35b6000806000600160008573ffffffffffffffffffffffffffffffffffffffff1673ffffffffffffffffffffffffffffffffffffffff168152602001908152602001600020805480602002602001604051908101604052809291908181526020016000905b828210156102f8578382906000526020600020906002020160405180604001604052908160008201548152602001600182015481525050815260200190600101906102b2565b5050505090506000600260008673ffffffffffffffffffffffffffffffffffffffff1673ffffffffffffffffffffffffffffffffffffffff168152602001908152602001600020805480602002602001604051908101604052809291908181526020016000905b8282101561044157838290600052602060002090600402016040518060800160405290816000820154815260200160018201548152602001600282015481526020016003820180546103b09061138f565b80601f01602080910402602001604051908101604052809291908181526020018280546103dc9061138f565b80156104295780601f106103fe57610100808354040283529160200191610429565b820191906000526020600020905b81548152906001019060200180831161040c57829003601f168201915b5050505050815250508152602001906001019061035f565b5050505090506000935060005b82518110156104bc57828181518110610490577f4e487b7100000000000000000000000000000000000000000000000000000000600052603260045260246000fd5b602002602001015160000151856104a7919061123c565b945080806104b4906113c1565b91505061044e565b506000925060005b815181101561053257818181518110610506577f4e487b7100000000000000000000000000000000000000000000000000000000600052603260045260246000fd5b6020026020010151602001518461051d919061123c565b9350808061052a906113c1565b9150506104c4565b505050915091565b6060600260008373ffffffffffffffffffffffffffffffffffffffff1673ffffffffffffffffffffffffffffffffffffffff168152602001908152602001600020805480602002602001604051908101604052809291908181526020016000905b8282101561067d57838290600052602060002090600402016040518060800160405290816000820154815260200160018201548152602001600282015481526020016003820180546105ec9061138f565b80601f01602080910402602001604051908101604052809291908181526020018280546106189061138f565b80156106655780601f1061063a57610100808354040283529160200191610665565b820191906000526020600020905b81548152906001019060200180831161064857829003601f168201915b5050505050815250508152602001906001019061059b565b505050509050919050565b600260205281600052604060002081815481106106a457600080fd5b9060005260206000209060040201600091509150508060000154908060010154908060020154908060030180546106da9061138f565b80601f01602080910402602001604051908101604052809291908181526020018280546107069061138f565b80156107535780601f1061072857610100808354040283529160200191610753565b820191906000526020600020905b81548152906001019060200180831161073657829003601f168201915b5050505050905084565b6001602052816000526040600020818154811061077957600080fd5b9060005260206000209060020201600091509150508060000154908060010154905082565b60006020528060005260406000206000915090505481565b60035481565b6000429050600160008473ffffffffffffffffffffffffffffffffffffffff1673ffffffffffffffffffffffffffffffffffffffff1681526020019081526020016000206040518060400160405280848152602001838152509080600181540180825580915050600190039060005260206000209060020201600090919091909150600082015181600001556020820151816001015550508273ffffffffffffffffffffffffffffffffffffffff167ff81cb191cd2bde9d53bb165012a50bfe1f5dbf4a959497583b9c1a9b3713f686838360405161089c9291906110ec565b60405180910390a2505050565b6060600160008373ffffffffffffffffffffffffffffffffffffffff1673ffffffffffffffffffffffffffffffffffffffff168152602001908152602001600020805480602002602001604051908101604052809291908181526020016000905b828210156109505783829060005260206000209060020201604051806040016040529081600082015481526020016001820154815250508152602001906001019061090a565b505050509050919050565b806000808473ffffffffffffffffffffffffffffffffffffffff1673ffffffffffffffffffffffffffffffffffffffff16815260200190815260200160002060008282546109a9919061123c565b925050819055508173ffffffffffffffffffffffffffffffffffffffff167f3f2c9d57c068687834f0de942a9babb9e5acab57d516d3480a3c16ee165a4273826040516109f691906110d1565b60405180910390a25050565b60008060035483610a139190611292565b9050806000808673ffffffffffffffffffffffffffffffffffffffff1673ffffffffffffffffffffffffffffffffffffffff168152602001908152602001600020541015610a96576040517f08c379a0000000000000000000000000000000000000000000000000000000008152600401610a8d906110b1565b60405180910390fd5b806000808673ffffffffffffffffffffffffffffffffffffffff1673ffffffffffffffffffffffffffffffffffffffff1681526020019081526020016000206000828254610ae491906112ec565b92505081905550600042905060006001600260008873ffffffffffffffffffffffffffffffffffffffff1673ffffffffffffffffffffffffffffffffffffffff16815260200190815260200160002080549050610b41919061123c565b9050600260008773ffffffffffffffffffffffffffffffffffffffff1673ffffffffffffffffffffffffffffffffffffffff16815260200190815260200160002060405180608001604052808381526020018581526020018481526020016040518060400160405280600981526020017f436f6d706c65746564000000000000000000000000000000000000000000000081525081525090806001815401808255809150506001900390600052602060002090600402016000909190919091506000820151816000015560208201518160010155604082015181600201556060820151816003019080519060200190610c3b929190610c9a565b5050508573ffffffffffffffffffffffffffffffffffffffff167fd21582b16a4798d84335f2ec99642d982f7a87032039f7b002c00ab51d0251568484604051610c86929190611115565b60405180910390a280935050505092915050565b828054610ca69061138f565b90600052602060002090601f016020900481019282610cc85760008555610d0f565b82601f10610ce157805160ff1916838001178555610d0f565b82800160010185558215610d0f579182015b82811115610d0e578251825591602001919060010190610cf3565b5b509050610d1c9190610d20565b5090565b5b80821115610d39576000816000905550600101610d21565b5090565b600081359050610d4c81611479565b92915050565b600081359050610d6181611490565b92915050565b600060208284031215610d7957600080fd5b6000610d8784828501610d3d565b91505092915050565b60008060408385031215610da357600080fd5b6000610db185828601610d3d565b9250506020610dc285828601610d52565b9150509250929050565b6000610dd88383610fbd565b60408301905092915050565b6000610df08383610fec565b905092915050565b6000610e03826111bd565b610e0d81856111f8565b9350610e188361119d565b8060005b83811015610e49578151610e308882610dcc565b9750610e3b836111de565b925050600181019050610e1c565b5085935050505092915050565b6000610e61826111c8565b610e6b8185611209565b935083602082028501610e7d856111ad565b8060005b85811015610eb95784840389528151610e9a8582610de4565b9450610ea5836111eb565b925060208a01995050600181019050610e81565b50829750879550505050505092915050565b6000610ed6826111d3565b610ee0818561121a565b9350610ef081856020860161135c565b610ef981611468565b840191505092915050565b6000610f0f826111d3565b610f19818561122b565b9350610f2981856020860161135c565b610f3281611468565b840191505092915050565b6000610f4a60098361122b565b91507f436f6d706c6574656400000000000000000000000000000000000000000000006000830152602082019050919050565b6000610f8a60178361122b565b91507f496e73756666696369656e742057694669546f6b656e730000000000000000006000830152602082019050919050565b604082016000820151610fd3600085018261104f565b506020820151610fe6602085018261104f565b50505050565b6000608083016000830151611004600086018261104f565b506020830151611017602086018261104f565b50604083015161102a604086018261104f565b50606083015184820360608601526110428282610ecb565b9150508091505092915050565b61105881611352565b82525050565b61106781611352565b82525050565b600060208201905081810360008301526110878184610df8565b905092915050565b600060208201905081810360008301526110a98184610e56565b905092915050565b600060208201905081810360008301526110ca81610f7d565b9050919050565b60006020820190506110e6600083018461105e565b92915050565b6000604082019050611101600083018561105e565b61110e602083018461105e565b9392505050565b600060608201905061112a600083018561105e565b611137602083018461105e565b818103604083015261114881610f3d565b90509392505050565b6000608082019050611166600083018761105e565b611173602083018661105e565b611180604083018561105e565b81810360608301526111928184610f04565b905095945050505050565b6000819050602082019050919050565b6000819050602082019050919050565b600081519050919050565b600081519050919050565b600081519050919050565b6000602082019050919050565b6000602082019050919050565b600082825260208201905092915050565b600082825260208201905092915050565b600082825260208201905092915050565b600082825260208201905092915050565b600061124782611352565b915061125283611352565b9250827fffffffffffffffffffffffffffffffffffffffffffffffffffffffffffffffff038211156112875761128661140a565b5b828201905092915050565b600061129d82611352565b91506112a883611352565b9250817fffffffffffffffffffffffffffffffffffffffffffffffffffffffffffffffff04831182151516156112e1576112e061140a565b5b828202905092915050565b60006112f782611352565b915061130283611352565b9250828210156113155761131461140a565b5b828203905092915050565b600061132b82611332565b9050919050565b600073ffffffffffffffffffffffffffffffffffffffff82169050919050565b6000819050919050565b60005b8381101561137a57808201518184015260208101905061135f565b83811115611389576000848401525b50505050565b600060028204905060018216806113a757607f821691505b602082108114156113bb576113ba611439565b5b50919050565b60006113cc82611352565b91507fffffffffffffffffffffffffffffffffffffffffffffffffffffffffffffffff8214156113ff576113fe61140a565b5b600182019050919050565b7f4e487b7100000000000000000000000000000000000000000000000000000000600052601160045260246000fd5b7f4e487b7100000000000000000000000000000000000000000000000000000000600052602260045260246000fd5b6000601f19601f8301169050919050565b61148281611320565b811461148d57600080fd5b50565b61149981611352565b81146114a457600080fd5b5056fea26469706673582212201d7e3401edff8058cbac216b619d248a22a2ff47de365bfb4c6f0dcf5b1fd8b064736f6c63430008000033",
  "linkReferences": {},
  "deployedLinkReferences": {}
}