{
  "_format": "hh-sol-artifact-1",
  "contractName": "WiFiBilling",
  "sourceName": "contracts/wiFiBilling.sol",
  "abi": [
    {
      "inputs": [],
      "stateMutability": "nonpayable",
      "type": "constructor"
    },
    {
      "anonymous": false,
      "inputs": [
        {
          "indexed": false,
          "internalType": "uint256",
          "name": "newCostPerMB",
          "type": "uint256"
        }
      ],
      "name": "CostPerMBUpdated",
      "type": "event"
    },
    {
      "anonymous": false,
      "inputs": [
        {
          "indexed": true,
          "internalType": "address",
          "name": "user",
          "type": "address"
        },
        {
          "indexed": false,
          "internalType": "uint256",
          "name": "usageMB",
          "type": "uint256"
        },
        {
          "indexed": false,
          "internalType": "uint256",
          "name": "costEth",
          "type": "uint256"
        },
        {
          "indexed": false,
          "internalType": "uint256",
          "name": "timestamp",
          "type": "uint256"
        }
      ],
      "name": "DataUsageLogged",
      "type": "event"
    },
    {
      "anonymous": false,
      "inputs": [
        {
          "indexed": true,
          "internalType": "address",
          "name": "isp",
          "type": "address"
        }
      ],
      "name": "ISPRegistered",
      "type": "event"
    },
    {
      "anonymous": false,
      "inputs": [
        {
          "indexed": true,
          "internalType": "address",
          "name": "user",
          "type": "address"
        },
        {
          "indexed": false,
          "internalType": "uint256",
          "name": "planId",
          "type": "uint256"
        },
        {
          "indexed": false,
          "internalType": "uint256",
          "name": "priceEth",
          "type": "uint256"
        },
        {
          "indexed": false,
          "internalType": "uint256",
          "name": "timestamp",
          "type": "uint256"
        }
      ],
      "name": "PlanPurchased",
      "type": "event"
    },
    {
      "anonymous": false,
      "inputs": [
        {
          "indexed": true,
          "internalType": "address",
          "name": "user",
          "type": "address"
        }
      ],
      "name": "UserRegistered",
      "type": "event"
    },
    {
      "inputs": [],
      "name": "costPerMB",
      "outputs": [
        {
          "internalType": "uint256",
          "name": "",
          "type": "uint256"
        }
      ],
      "stateMutability": "view",
      "type": "function"
    },
    {
      "inputs": [
        {
          "internalType": "address",
          "name": "user",
          "type": "address"
        }
      ],
      "name": "generateBillingReport",
      "outputs": [
        {
          "internalType": "uint256",
          "name": "",
          "type": "uint256"
        },
        {
          "internalType": "uint256",
          "name": "",
          "type": "uint256"
        }
      ],
      "stateMutability": "view",
      "type": "function"
    },
    {
      "inputs": [
        {
          "internalType": "address",
          "name": "user",
          "type": "address"
        }
      ],
      "name": "getPurchasedPlans",
      "outputs": [
        {
          "internalType": "uint256[]",
          "name": "",
          "type": "uint256[]"
        }
      ],
      "stateMutability": "view",
      "type": "function"
    },
    {
      "inputs": [
        {
          "internalType": "address",
          "name": "user",
          "type": "address"
        }
      ],
      "name": "getTransactions",
      "outputs": [
        {
          "components": [
            {
              "internalType": "uint256",
              "name": "id",
              "type": "uint256"
            },
            {
              "internalType": "uint256",
              "name": "amount",
              "type": "uint256"
            },
            {
              "internalType": "uint256",
              "name": "timestamp",
              "type": "uint256"
            },
            {
              "internalType": "string",
              "name": "status",
              "type": "string"
            }
          ],
          "internalType": "struct WiFiBilling.Transaction[]",
          "name": "",
          "type": "tuple[]"
        }
      ],
      "stateMutability": "view",
      "type": "function"
    },
    {
      "inputs": [
        {
          "internalType": "address",
          "name": "user",
          "type": "address"
        }
      ],
      "name": "isUserRegistered",
      "outputs": [
        {
          "internalType": "bool",
          "name": "",
          "type": "bool"
        }
      ],
      "stateMutability": "view",
      "type": "function"
    },
    {
      "inputs": [],
      "name": "isp",
      "outputs": [
        {
          "internalType": "address",
          "name": "",
          "type": "address"
        }
      ],
      "stateMutability": "view",
      "type": "function"
    },
    {
      "inputs": [
        {
          "internalType": "address",
          "name": "user",
          "type": "address"
        },
        {
          "internalType": "uint256",
          "name": "usageMB",
          "type": "uint256"
        }
      ],
      "name": "logDataUsageByISP",
      "outputs": [],
      "stateMutability": "nonpayable",
      "type": "function"
    },
    {
      "inputs": [
        {
          "internalType": "uint256",
          "name": "planId",
          "type": "uint256"
        },
        {
          "internalType": "uint256",
          "name": "priceEth",
          "type": "uint256"
        }
      ],
      "name": "purchasePlan",
      "outputs": [],
      "stateMutability": "payable",
      "type": "function"
    },
    {
      "inputs": [],
      "name": "registerISP",
      "outputs": [],
      "stateMutability": "nonpayable",
      "type": "function"
    },
    {
      "inputs": [
        {
          "internalType": "address",
          "name": "user",
          "type": "address"
        }
      ],
      "name": "registerUser",
      "outputs": [],
      "stateMutability": "nonpayable",
      "type": "function"
    },
    {
      "inputs": [
        {
          "internalType": "uint256",
          "name": "_costPerMB",
          "type": "uint256"
        }
      ],
      "name": "setCostPerMB",
      "outputs": [],
      "stateMutability": "nonpayable",
      "type": "function"
    },
    {
      "inputs": [
        {
          "internalType": "address",
          "name": "",
          "type": "address"
        }
      ],
      "name": "transactionCount",
      "outputs": [
        {
          "internalType": "uint256",
          "name": "",
          "type": "uint256"
        }
      ],
      "stateMutability": "view",
      "type": "function"
    },
    {
      "inputs": [
        {
          "internalType": "address",
          "name": "",
          "type": "address"
        },
        {
          "internalType": "uint256",
          "name": "",
          "type": "uint256"
        }
      ],
      "name": "userTransactions",
      "outputs": [
        {
          "internalType": "uint256",
          "name": "id",
          "type": "uint256"
        },
        {
          "internalType": "uint256",
          "name": "amount",
          "type": "uint256"
        },
        {
          "internalType": "uint256",
          "name": "timestamp",
          "type": "uint256"
        },
        {
          "internalType": "string",
          "name": "status",
          "type": "string"
        }
      ],
      "stateMutability": "view",
      "type": "function"
    },
    {
      "inputs": [
        {
          "internalType": "address",
          "name": "",
          "type": "address"
        }
      ],
      "name": "users",
      "outputs": [
        {
          "internalType": "uint256",
          "name": "totalUsageMB",
          "type": "uint256"
        },
        {
          "internalType": "uint256",
          "name": "totalCostEth",
          "type": "uint256"
        },
        {
          "internalType": "bool",
          "name": "isRegistered",
          "type": "bool"
        }
      ],
      "stateMutability": "view",
      "type": "function"
    },
    {
      "stateMutability": "payable",
      "type": "receive"
    }
  ],
  "bytecode": "0x608060405234801561001057600080fd5b50336000806101000a81548173ffffffffffffffffffffffffffffffffffffffff021916908373ffffffffffffffffffffffffffffffffffffffff160217905550600180819055506129c9806100676000396000f3fe6080604052600436106100e15760003560e01c80635e884f5f1161007f578063a87430ba11610059578063a87430ba14610308578063abdd3d2d14610347578063b842ec4414610372578063f7c992ab146103b257610121565b80635e884f5f1461028b5780635fe4fcc8146102a257806399be3375146102cb57610121565b8063163f7522116100bb578063163f7522146101cc5780632199d5cd14610209578063286ceaec146102325780633fcdbddc1461024e57610121565b806303be1621146101265780630415d282146101515780630f8cda201461018f57610121565b36610121576040517f08c379a000000000000000000000000000000000000000000000000000000000815260040161011890612434565b60405180910390fd5b600080fd5b34801561013257600080fd5b5061013b6103db565b604051610148919061233a565b60405180910390f35b34801561015d57600080fd5b5061017860048036038101906101739190611c65565b6103ff565b60405161018692919061258f565b60405180910390f35b34801561019b57600080fd5b506101b660048036038101906101b19190611c65565b610522565b6040516101c39190612355565b60405180910390f35b3480156101d857600080fd5b506101f360048036038101906101ee9190611c65565b610701565b6040516102009190612399565b60405180910390f35b34801561021557600080fd5b50610230600480360381019061022b9190611c65565b61075a565b005b61024c60048036038101906102479190611cf3565b610adf565b005b34801561025a57600080fd5b5061027560048036038101906102709190611c65565b61103a565b6040516102829190612377565b60405180910390f35b34801561029757600080fd5b506102a0611165565b005b3480156102ae57600080fd5b506102c960048036038101906102c49190611c8e565b61153e565b005b3480156102d757600080fd5b506102f260048036038101906102ed9190611c65565b61190f565b6040516102ff9190612574565b60405180910390f35b34801561031457600080fd5b5061032f600480360381019061032a9190611c65565b611927565b60405161033e939291906125b8565b60405180910390f35b34801561035357600080fd5b5061035c61195e565b6040516103699190612574565b60405180910390f35b34801561037e57600080fd5b5061039960048036038101906103949190611c8e565b611964565b6040516103a99493929190612626565b60405180910390f35b3480156103be57600080fd5b506103d960048036038101906103d49190611cca565b611a39565b005b60008054906101000a900473ffffffffffffffffffffffffffffffffffffffff1681565b60008082600260008273ffffffffffffffffffffffffffffffffffffffff1673ffffffffffffffffffffffffffffffffffffffff16815260200190815260200160002060030160009054906101000a900460ff16610492576040517f08c379a000000000000000000000000000000000000000000000000000000000815260040161048990612414565b60405180910390fd5b600260008573ffffffffffffffffffffffffffffffffffffffff1673ffffffffffffffffffffffffffffffffffffffff16815260200190815260200160002060000154600260008673ffffffffffffffffffffffffffffffffffffffff1673ffffffffffffffffffffffffffffffffffffffff168152602001908152602001600020600101549250925050915091565b606081600260008273ffffffffffffffffffffffffffffffffffffffff1673ffffffffffffffffffffffffffffffffffffffff16815260200190815260200160002060030160009054906101000a900460ff166105b4576040517f08c379a00000000000000000000000000000000000000000000000000000000081526004016105ab90612414565b60405180910390fd5b600360008473ffffffffffffffffffffffffffffffffffffffff1673ffffffffffffffffffffffffffffffffffffffff168152602001908152602001600020805480602002602001604051908101604052809291908181526020016000905b828210156106f557838290600052602060002090600402016040518060800160405290816000820154815260200160018201548152602001600282015481526020016003820180546106649061287b565b80601f01602080910402602001604051908101604052809291908181526020018280546106909061287b565b80156106dd5780601f106106b2576101008083540402835291602001916106dd565b820191906000526020600020905b8154815290600101906020018083116106c057829003601f168201915b50505050508152505081526020019060010190610613565b50505050915050919050565b6000600260008373ffffffffffffffffffffffffffffffffffffffff1673ffffffffffffffffffffffffffffffffffffffff16815260200190815260200160002060030160009054906101000a900460ff169050919050565b60008054906101000a900473ffffffffffffffffffffffffffffffffffffffff1673ffffffffffffffffffffffffffffffffffffffff163373ffffffffffffffffffffffffffffffffffffffff16146107e8576040517f08c379a00000000000000000000000000000000000000000000000000000000081526004016107df90612534565b60405180910390fd5b600073ffffffffffffffffffffffffffffffffffffffff168173ffffffffffffffffffffffffffffffffffffffff161415610858576040517f08c379a000000000000000000000000000000000000000000000000000000000815260040161084f906123d4565b60405180910390fd5b600260008273ffffffffffffffffffffffffffffffffffffffff1673ffffffffffffffffffffffffffffffffffffffff16815260200190815260200160002060030160009054906101000a900460ff16156108e8576040517f08c379a00000000000000000000000000000000000000000000000000000000081526004016108df90612454565b60405180910390fd5b6001600260008373ffffffffffffffffffffffffffffffffffffffff1673ffffffffffffffffffffffffffffffffffffffff16815260200190815260200160002060030160006101000a81548160ff0219169083151502179055506000600260008373ffffffffffffffffffffffffffffffffffffffff1673ffffffffffffffffffffffffffffffffffffffff168152602001908152602001600020600001819055506000600260008373ffffffffffffffffffffffffffffffffffffffff1673ffffffffffffffffffffffffffffffffffffffff16815260200190815260200160002060010181905550600067ffffffffffffffff811115610a14577f4e487b7100000000000000000000000000000000000000000000000000000000600052604160045260246000fd5b604051908082528060200260200182016040528015610a425781602001602082028036833780820191505090505b50600260008373ffffffffffffffffffffffffffffffffffffffff1673ffffffffffffffffffffffffffffffffffffffff1681526020019081526020016000206002019080519060200190610a98929190611b4b565b508073ffffffffffffffffffffffffffffffffffffffff167f54db7a5cb4735e1aac1f53db512d3390390bb6637bd30ad4bf9fc98667d9b9b960405160405180910390a250565b33600260008273ffffffffffffffffffffffffffffffffffffffff1673ffffffffffffffffffffffffffffffffffffffff16815260200190815260200160002060030160009054906101000a900460ff16610b6f576040517f08c379a0000000000000000000000000000000000000000000000000000000008152600401610b6690612414565b60405180910390fd5b60008311610bb2576040517f08c379a0000000000000000000000000000000000000000000000000000000008152600401610ba9906124f4565b60405180910390fd5b60008211610bf5576040517f08c379a0000000000000000000000000000000000000000000000000000000008152600401610bec90612514565b60405180910390fd5b81341015610c38576040517f08c379a0000000000000000000000000000000000000000000000000000000008152600401610c2f906123b4565b60405180910390fd5b81341115610cff5760008234610c4e91906127cc565b905060003373ffffffffffffffffffffffffffffffffffffffff1682604051610c7690612325565b60006040518083038185875af1925050503d8060008114610cb3576040519150601f19603f3d011682016040523d82523d6000602084013e610cb8565b606091505b5050905080610cfc576040517f08c379a0000000000000000000000000000000000000000000000000000000008152600401610cf3906124b4565b60405180910390fd5b50505b60008060009054906101000a900473ffffffffffffffffffffffffffffffffffffffff1673ffffffffffffffffffffffffffffffffffffffff1683604051610d4690612325565b60006040518083038185875af1925050503d8060008114610d83576040519150601f19603f3d011682016040523d82523d6000602084013e610d88565b606091505b5050905080610dcc576040517f08c379a0000000000000000000000000000000000000000000000000000000008152600401610dc390612494565b60405180910390fd5b600260003373ffffffffffffffffffffffffffffffffffffffff1673ffffffffffffffffffffffffffffffffffffffff16815260200190815260200160002060020184908060018154018082558091505060019003906000526020600020016000909190919091505582600260003373ffffffffffffffffffffffffffffffffffffffff1673ffffffffffffffffffffffffffffffffffffffff1681526020019081526020016000206001016000828254610e87919061271c565b925050819055506000600460003373ffffffffffffffffffffffffffffffffffffffff1673ffffffffffffffffffffffffffffffffffffffff1681526020019081526020016000206000815480929190610ee0906128ad565b919050559050600360003373ffffffffffffffffffffffffffffffffffffffff1673ffffffffffffffffffffffffffffffffffffffff16815260200190815260200160002060405180608001604052808381526020018681526020014281526020016040518060400160405280600781526020017f537563636573730000000000000000000000000000000000000000000000000081525081525090806001815401808255809150506001900390600052602060002090600402016000909190919091506000820151816000015560208201518160010155604082015181600201556060820151816003019080519060200190610fde929190611b98565b5050503373ffffffffffffffffffffffffffffffffffffffff167fbf8fafb673ff47e19af2d0354b6642c45e316a2b0fec3700ef3d195bf112a68486864260405161102b939291906125ef565b60405180910390a25050505050565b606081600260008273ffffffffffffffffffffffffffffffffffffffff1673ffffffffffffffffffffffffffffffffffffffff16815260200190815260200160002060030160009054906101000a900460ff166110cc576040517f08c379a00000000000000000000000000000000000000000000000000000000081526004016110c390612414565b60405180910390fd5b600260008473ffffffffffffffffffffffffffffffffffffffff1673ffffffffffffffffffffffffffffffffffffffff16815260200190815260200160002060020180548060200260200160405190810160405280929190818152602001828054801561115857602002820191906000526020600020905b815481526020019060010190808311611144575b5050505050915050919050565b60008054906101000a900473ffffffffffffffffffffffffffffffffffffffff1673ffffffffffffffffffffffffffffffffffffffff163373ffffffffffffffffffffffffffffffffffffffff16146111f3576040517f08c379a00000000000000000000000000000000000000000000000000000000081526004016111ea906124d4565b60405180910390fd5b600260008060009054906101000a900473ffffffffffffffffffffffffffffffffffffffff1673ffffffffffffffffffffffffffffffffffffffff1673ffffffffffffffffffffffffffffffffffffffff16815260200190815260200160002060030160009054906101000a900460ff16156112a4576040517f08c379a000000000000000000000000000000000000000000000000000000000815260040161129b906123f4565b60405180910390fd5b6001600260008060009054906101000a900473ffffffffffffffffffffffffffffffffffffffff1673ffffffffffffffffffffffffffffffffffffffff1673ffffffffffffffffffffffffffffffffffffffff16815260200190815260200160002060030160006101000a81548160ff0219169083151502179055506000600260008060009054906101000a900473ffffffffffffffffffffffffffffffffffffffff1673ffffffffffffffffffffffffffffffffffffffff1673ffffffffffffffffffffffffffffffffffffffff168152602001908152602001600020600001819055506000600260008060009054906101000a900473ffffffffffffffffffffffffffffffffffffffff1673ffffffffffffffffffffffffffffffffffffffff1673ffffffffffffffffffffffffffffffffffffffff16815260200190815260200160002060010181905550600067ffffffffffffffff811115611433577f4e487b7100000000000000000000000000000000000000000000000000000000600052604160045260246000fd5b6040519080825280602002602001820160405280156114615781602001602082028036833780820191505090505b50600260008060009054906101000a900473ffffffffffffffffffffffffffffffffffffffff1673ffffffffffffffffffffffffffffffffffffffff1673ffffffffffffffffffffffffffffffffffffffff16815260200190815260200160002060020190805190602001906114d8929190611b4b565b5060008054906101000a900473ffffffffffffffffffffffffffffffffffffffff1673ffffffffffffffffffffffffffffffffffffffff167fc2b5df63df80b6607bf402c493818ce8a710abb2c1dcedb44adc7ade8eecd99860405160405180910390a2565b60008054906101000a900473ffffffffffffffffffffffffffffffffffffffff1673ffffffffffffffffffffffffffffffffffffffff163373ffffffffffffffffffffffffffffffffffffffff16146115cc576040517f08c379a00000000000000000000000000000000000000000000000000000000081526004016115c390612534565b60405180910390fd5b81600260008273ffffffffffffffffffffffffffffffffffffffff1673ffffffffffffffffffffffffffffffffffffffff16815260200190815260200160002060030160009054906101000a900460ff1661165c576040517f08c379a000000000000000000000000000000000000000000000000000000000815260040161165390612414565b60405180910390fd5b6000821161169f576040517f08c379a000000000000000000000000000000000000000000000000000000000815260040161169690612474565b60405180910390fd5b6000600154836116af9190612772565b905082600260008673ffffffffffffffffffffffffffffffffffffffff1673ffffffffffffffffffffffffffffffffffffffff1681526020019081526020016000206000016000828254611703919061271c565b9250508190555080600260008673ffffffffffffffffffffffffffffffffffffffff1673ffffffffffffffffffffffffffffffffffffffff168152602001908152602001600020600101600082825461175c919061271c565b925050819055506000600460008673ffffffffffffffffffffffffffffffffffffffff1673ffffffffffffffffffffffffffffffffffffffff16815260200190815260200160002060008154809291906117b5906128ad565b919050559050600360008673ffffffffffffffffffffffffffffffffffffffff1673ffffffffffffffffffffffffffffffffffffffff16815260200190815260200160002060405180608001604052808381526020018481526020014281526020016040518060400160405280600781526020017f5375636365737300000000000000000000000000000000000000000000000000815250815250908060018154018082558091505060019003906000526020600020906004020160009091909190915060008201518160000155602082015181600101556040820151816002015560608201518160030190805190602001906118b3929190611b98565b5050508473ffffffffffffffffffffffffffffffffffffffff167fd9b6526e1bd2c00f1252bb4e6680e9514f7f3c408c09a8053b6aaf578f814dfa858442604051611900939291906125ef565b60405180910390a25050505050565b60046020528060005260406000206000915090505481565b60026020528060005260406000206000915090508060000154908060010154908060030160009054906101000a900460ff16905083565b60015481565b6003602052816000526040600020818154811061198057600080fd5b9060005260206000209060040201600091509150508060000154908060010154908060020154908060030180546119b69061287b565b80601f01602080910402602001604051908101604052809291908181526020018280546119e29061287b565b8015611a2f5780601f10611a0457610100808354040283529160200191611a2f565b820191906000526020600020905b815481529060010190602001808311611a1257829003601f168201915b5050505050905084565b60008054906101000a900473ffffffffffffffffffffffffffffffffffffffff1673ffffffffffffffffffffffffffffffffffffffff163373ffffffffffffffffffffffffffffffffffffffff1614611ac7576040517f08c379a0000000000000000000000000000000000000000000000000000000008152600401611abe90612534565b60405180910390fd5b60008111611b0a576040517f08c379a0000000000000000000000000000000000000000000000000000000008152600401611b0190612554565b60405180910390fd5b806001819055507f7ac16b5565c9cd5929aa61a1f0891087d1105caadf19b89210abbb7292f12c4281604051611b409190612574565b60405180910390a150565b828054828255906000526020600020908101928215611b87579160200282015b82811115611b86578251825591602001919060010190611b6b565b5b509050611b949190611c1e565b5090565b828054611ba49061287b565b90600052602060002090601f016020900481019282611bc65760008555611c0d565b82601f10611bdf57805160ff1916838001178555611c0d565b82800160010185558215611c0d579182015b82811115611c0c578251825591602001919060010190611bf1565b5b509050611c1a9190611c1e565b5090565b5b80821115611c37576000816000905550600101611c1f565b5090565b600081359050611c4a81612965565b92915050565b600081359050611c5f8161297c565b92915050565b600060208284031215611c7757600080fd5b6000611c8584828501611c3b565b91505092915050565b60008060408385031215611ca157600080fd5b6000611caf85828601611c3b565b9250506020611cc085828601611c50565b9150509250929050565b600060208284031215611cdc57600080fd5b6000611cea84828501611c50565b91505092915050565b60008060408385031215611d0657600080fd5b6000611d1485828601611c50565b9250506020611d2585828601611c50565b9150509250929050565b6000611d3b83836122a4565b905092915050565b6000611d4f8383612307565b60208301905092915050565b611d6481612800565b82525050565b6000611d7582612692565b611d7f81856126cd565b935083602082028501611d9185612672565b8060005b85811015611dcd5784840389528151611dae8582611d2f565b9450611db9836126b3565b925060208a01995050600181019050611d95565b50829750879550505050505092915050565b6000611dea8261269d565b611df481856126de565b9350611dff83612682565b8060005b83811015611e30578151611e178882611d43565b9750611e22836126c0565b925050600181019050611e03565b5085935050505092915050565b611e4681612812565b82525050565b6000611e57826126a8565b611e6181856126fa565b9350611e71818560208601612848565b611e7a81612954565b840191505092915050565b6000611e90826126a8565b611e9a818561270b565b9350611eaa818560208601612848565b611eb381612954565b840191505092915050565b6000611ecb60158361270b565b91507f496e73756666696369656e74204554482073656e7400000000000000000000006000830152602082019050919050565b6000611f0b60148361270b565b91507f496e76616c6964207573657220616464726573730000000000000000000000006000830152602082019050919050565b6000611f4b60168361270b565b91507f49535020616c72656164792072656769737465726564000000000000000000006000830152602082019050919050565b6000611f8b60138361270b565b91507f55736572206e6f742072656769737465726564000000000000000000000000006000830152602082019050919050565b6000611fcb60208361270b565b91507f44697265637420455448207472616e7366657273206e6f7420616c6c6f7765646000830152602082019050919050565b600061200b60178361270b565b91507f5573657220616c726561647920726567697374657265640000000000000000006000830152602082019050919050565b600061204b601c8361270b565b91507f5573616765206d7573742062652067726561746572207468616e2030000000006000830152602082019050919050565b600061208b60198361270b565b91507f4661696c656420746f2073656e642045544820746f20495350000000000000006000830152602082019050919050565b60006120cb6000836126ef565b9150600082019050919050565b60006120e560158361270b565b91507f4661696c656420746f2073656e6420726566756e6400000000000000000000006000830152602082019050919050565b600061212560248361270b565b91507f4f6e6c7920746865204953502063616e207265676973746572207468656d736560008301527f6c766573000000000000000000000000000000000000000000000000000000006020830152604082019050919050565b600061218b600f8361270b565b91507f496e76616c696420706c616e20494400000000000000000000000000000000006000830152602082019050919050565b60006121cb601c8361270b565b91507f5072696365206d7573742062652067726561746572207468616e2030000000006000830152602082019050919050565b600061220b601f8361270b565b91507f4f6e6c79204953502063616e2063616c6c20746869732066756e6374696f6e006000830152602082019050919050565b600061224b60228361270b565b91507f436f737420706572204d42206d7573742062652067726561746572207468616e60008301527f20300000000000000000000000000000000000000000000000000000000000006020830152604082019050919050565b60006080830160008301516122bc6000860182612307565b5060208301516122cf6020860182612307565b5060408301516122e26040860182612307565b50606083015184820360608601526122fa8282611e4c565b9150508091505092915050565b6123108161283e565b82525050565b61231f8161283e565b82525050565b6000612330826120be565b9150819050919050565b600060208201905061234f6000830184611d5b565b92915050565b6000602082019050818103600083015261236f8184611d6a565b905092915050565b600060208201905081810360008301526123918184611ddf565b905092915050565b60006020820190506123ae6000830184611e3d565b92915050565b600060208201905081810360008301526123cd81611ebe565b9050919050565b600060208201905081810360008301526123ed81611efe565b9050919050565b6000602082019050818103600083015261240d81611f3e565b9050919050565b6000602082019050818103600083015261242d81611f7e565b9050919050565b6000602082019050818103600083015261244d81611fbe565b9050919050565b6000602082019050818103600083015261246d81611ffe565b9050919050565b6000602082019050818103600083015261248d8161203e565b9050919050565b600060208201905081810360008301526124ad8161207e565b9050919050565b600060208201905081810360008301526124cd816120d8565b9050919050565b600060208201905081810360008301526124ed81612118565b9050919050565b6000602082019050818103600083015261250d8161217e565b9050919050565b6000602082019050818103600083015261252d816121be565b9050919050565b6000602082019050818103600083015261254d816121fe565b9050919050565b6000602082019050818103600083015261256d8161223e565b9050919050565b60006020820190506125896000830184612316565b92915050565b60006040820190506125a46000830185612316565b6125b16020830184612316565b9392505050565b60006060820190506125cd6000830186612316565b6125da6020830185612316565b6125e76040830184611e3d565b949350505050565b60006060820190506126046000830186612316565b6126116020830185612316565b61261e6040830184612316565b949350505050565b600060808201905061263b6000830187612316565b6126486020830186612316565b6126556040830185612316565b81810360608301526126678184611e85565b905095945050505050565b6000819050602082019050919050565b6000819050602082019050919050565b600081519050919050565b600081519050919050565b600081519050919050565b6000602082019050919050565b6000602082019050919050565b600082825260208201905092915050565b600082825260208201905092915050565b600081905092915050565b600082825260208201905092915050565b600082825260208201905092915050565b60006127278261283e565b91506127328361283e565b9250827fffffffffffffffffffffffffffffffffffffffffffffffffffffffffffffffff03821115612767576127666128f6565b5b828201905092915050565b600061277d8261283e565b91506127888361283e565b9250817fffffffffffffffffffffffffffffffffffffffffffffffffffffffffffffffff04831182151516156127c1576127c06128f6565b5b828202905092915050565b60006127d78261283e565b91506127e28361283e565b9250828210156127f5576127f46128f6565b5b828203905092915050565b600061280b8261281e565b9050919050565b60008115159050919050565b600073ffffffffffffffffffffffffffffffffffffffff82169050919050565b6000819050919050565b60005b8381101561286657808201518184015260208101905061284b565b83811115612875576000848401525b50505050565b6000600282049050600182168061289357607f821691505b602082108114156128a7576128a6612925565b5b50919050565b60006128b88261283e565b91507fffffffffffffffffffffffffffffffffffffffffffffffffffffffffffffffff8214156128eb576128ea6128f6565b5b600182019050919050565b7f4e487b7100000000000000000000000000000000000000000000000000000000600052601160045260246000fd5b7f4e487b7100000000000000000000000000000000000000000000000000000000600052602260045260246000fd5b6000601f19601f8301169050919050565b61296e81612800565b811461297957600080fd5b50565b6129858161283e565b811461299057600080fd5b5056fea26469706673582212209895cba4e27dfc46fb79d68b856f835623f67160af5102c476fc3c73c2d731b764736f6c63430008000033",
  "linkReferences": {},
  "deployedLinkReferences": {}
}