{
  "_format": "hh-sol-artifact-1",
  "contractName": "WiFiBilling",
  "sourceName": "contracts/wiFiBilling.sol",
  "abi": [
    {
      "inputs": [],
      "stateMutability": "nonpayable",
      "type": "constructor"
    },
    {
      "anonymous": false,
      "inputs": [
        {
          "indexed": false,
          "internalType": "uint256",
          "name": "newCostPerMB",
          "type": "uint256"
        }
      ],
      "name": "CostPerMBUpdated",
      "type": "event"
    },
    {
      "anonymous": false,
      "inputs": [
        {
          "indexed": true,
          "internalType": "address",
          "name": "user",
          "type": "address"
        },
        {
          "indexed": false,
          "internalType": "uint256",
          "name": "usageMB",
          "type": "uint256"
        },
        {
          "indexed": false,
          "internalType": "uint256",
          "name": "costEth",
          "type": "uint256"
        },
        {
          "indexed": false,
          "internalType": "uint256",
          "name": "timestamp",
          "type": "uint256"
        }
      ],
      "name": "DataUsageLogged",
      "type": "event"
    },
    {
      "anonymous": false,
      "inputs": [
        {
          "indexed": true,
          "internalType": "address",
          "name": "user",
          "type": "address"
        },
        {
          "indexed": false,
          "internalType": "uint256",
          "name": "planId",
          "type": "uint256"
        },
        {
          "indexed": false,
          "internalType": "uint256",
          "name": "priceEth",
          "type": "uint256"
        },
        {
          "indexed": false,
          "internalType": "uint256",
          "name": "timestamp",
          "type": "uint256"
        }
      ],
      "name": "PlanPurchased",
      "type": "event"
    },
    {
      "anonymous": false,
      "inputs": [
        {
          "indexed": true,
          "internalType": "address",
          "name": "user",
          "type": "address"
        }
      ],
      "name": "UserRegistered",
      "type": "event"
    },
    {
      "inputs": [],
      "name": "costPerMB",
      "outputs": [
        {
          "internalType": "uint256",
          "name": "",
          "type": "uint256"
        }
      ],
      "stateMutability": "view",
      "type": "function"
    },
    {
      "inputs": [
        {
          "internalType": "address",
          "name": "user",
          "type": "address"
        }
      ],
      "name": "generateBillingReport",
      "outputs": [
        {
          "internalType": "uint256",
          "name": "",
          "type": "uint256"
        },
        {
          "internalType": "uint256",
          "name": "",
          "type": "uint256"
        }
      ],
      "stateMutability": "view",
      "type": "function"
    },
    {
      "inputs": [
        {
          "internalType": "address",
          "name": "user",
          "type": "address"
        }
      ],
      "name": "getPurchasedPlans",
      "outputs": [
        {
          "internalType": "uint256[]",
          "name": "",
          "type": "uint256[]"
        }
      ],
      "stateMutability": "view",
      "type": "function"
    },
    {
      "inputs": [
        {
          "internalType": "address",
          "name": "user",
          "type": "address"
        }
      ],
      "name": "getTransactions",
      "outputs": [
        {
          "components": [
            {
              "internalType": "uint256",
              "name": "id",
              "type": "uint256"
            },
            {
              "internalType": "uint256",
              "name": "amount",
              "type": "uint256"
            },
            {
              "internalType": "uint256",
              "name": "timestamp",
              "type": "uint256"
            },
            {
              "internalType": "string",
              "name": "status",
              "type": "string"
            }
          ],
          "internalType": "struct WiFiBilling.Transaction[]",
          "name": "",
          "type": "tuple[]"
        }
      ],
      "stateMutability": "view",
      "type": "function"
    },
    {
      "inputs": [
        {
          "internalType": "address",
          "name": "user",
          "type": "address"
        }
      ],
      "name": "isUserRegistered",
      "outputs": [
        {
          "internalType": "bool",
          "name": "",
          "type": "bool"
        }
      ],
      "stateMutability": "view",
      "type": "function"
    },
    {
      "inputs": [],
      "name": "isp",
      "outputs": [
        {
          "internalType": "address",
          "name": "",
          "type": "address"
        }
      ],
      "stateMutability": "view",
      "type": "function"
    },
    {
      "inputs": [
        {
          "internalType": "address",
          "name": "user",
          "type": "address"
        },
        {
          "internalType": "uint256",
          "name": "usageMB",
          "type": "uint256"
        }
      ],
      "name": "logDataUsageByISP",
      "outputs": [],
      "stateMutability": "nonpayable",
      "type": "function"
    },
    {
      "inputs": [
        {
          "internalType": "uint256",
          "name": "planId",
          "type": "uint256"
        },
        {
          "internalType": "uint256",
          "name": "priceEth",
          "type": "uint256"
        }
      ],
      "name": "purchasePlan",
      "outputs": [],
      "stateMutability": "payable",
      "type": "function"
    },
    {
      "inputs": [
        {
          "internalType": "address",
          "name": "user",
          "type": "address"
        }
      ],
      "name": "registerUser",
      "outputs": [],
      "stateMutability": "nonpayable",
      "type": "function"
    },
    {
      "inputs": [
        {
          "internalType": "uint256",
          "name": "_costPerMB",
          "type": "uint256"
        }
      ],
      "name": "setCostPerMB",
      "outputs": [],
      "stateMutability": "nonpayable",
      "type": "function"
    },
    {
      "inputs": [
        {
          "internalType": "address",
          "name": "",
          "type": "address"
        }
      ],
      "name": "transactionCount",
      "outputs": [
        {
          "internalType": "uint256",
          "name": "",
          "type": "uint256"
        }
      ],
      "stateMutability": "view",
      "type": "function"
    },
    {
      "inputs": [
        {
          "internalType": "address",
          "name": "",
          "type": "address"
        },
        {
          "internalType": "uint256",
          "name": "",
          "type": "uint256"
        }
      ],
      "name": "userTransactions",
      "outputs": [
        {
          "internalType": "uint256",
          "name": "id",
          "type": "uint256"
        },
        {
          "internalType": "uint256",
          "name": "amount",
          "type": "uint256"
        },
        {
          "internalType": "uint256",
          "name": "timestamp",
          "type": "uint256"
        },
        {
          "internalType": "string",
          "name": "status",
          "type": "string"
        }
      ],
      "stateMutability": "view",
      "type": "function"
    },
    {
      "inputs": [
        {
          "internalType": "address",
          "name": "",
          "type": "address"
        }
      ],
      "name": "users",
      "outputs": [
        {
          "internalType": "uint256",
          "name": "totalUsageMB",
          "type": "uint256"
        },
        {
          "internalType": "uint256",
          "name": "totalCostEth",
          "type": "uint256"
        },
        {
          "internalType": "bool",
          "name": "isRegistered",
          "type": "bool"
        }
      ],
      "stateMutability": "view",
      "type": "function"
    },
    {
      "stateMutability": "payable",
      "type": "receive"
    }
  ],
  "bytecode": "0x608060405234801561001057600080fd5b50336000806101000a81548173ffffffffffffffffffffffffffffffffffffffff021916908373ffffffffffffffffffffffffffffffffffffffff160217905550600180819055506124d8806100676000396000f3fe6080604052600436106100c65760003560e01c80633fcdbddc1161007f578063a87430ba11610059578063a87430ba146102d6578063abdd3d2d14610315578063b842ec4414610340578063f7c992ab1461038057610106565b80633fcdbddc146102335780635fe4fcc81461027057806399be33751461029957610106565b806303be16211461010b5780630415d282146101365780630f8cda2014610174578063163f7522146101b15780632199d5cd146101ee578063286ceaec1461021757610106565b36610106576040517f08c379a00000000000000000000000000000000000000000000000000000000081526004016100fd90611f63565b60405180910390fd5b600080fd5b34801561011757600080fd5b506101206103a9565b60405161012d9190611e89565b60405180910390f35b34801561014257600080fd5b5061015d6004803603810190610158919061185a565b6103cd565b60405161016b92919061209e565b60405180910390f35b34801561018057600080fd5b5061019b6004803603810190610196919061185a565b6104f0565b6040516101a89190611ea4565b60405180910390f35b3480156101bd57600080fd5b506101d860048036038101906101d3919061185a565b6106cf565b6040516101e59190611ee8565b60405180910390f35b3480156101fa57600080fd5b506102156004803603810190610210919061185a565b610728565b005b610231600480360381019061022c91906118e8565b610aad565b005b34801561023f57600080fd5b5061025a6004803603810190610255919061185a565b611008565b6040516102679190611ec6565b60405180910390f35b34801561027c57600080fd5b5061029760048036038101906102929190611883565b611133565b005b3480156102a557600080fd5b506102c060048036038101906102bb919061185a565b611504565b6040516102cd9190612083565b60405180910390f35b3480156102e257600080fd5b506102fd60048036038101906102f8919061185a565b61151c565b60405161030c939291906120c7565b60405180910390f35b34801561032157600080fd5b5061032a611553565b6040516103379190612083565b60405180910390f35b34801561034c57600080fd5b5061036760048036038101906103629190611883565b611559565b6040516103779493929190612135565b60405180910390f35b34801561038c57600080fd5b506103a760048036038101906103a291906118bf565b61162e565b005b60008054906101000a900473ffffffffffffffffffffffffffffffffffffffff1681565b60008082600260008273ffffffffffffffffffffffffffffffffffffffff1673ffffffffffffffffffffffffffffffffffffffff16815260200190815260200160002060030160009054906101000a900460ff16610460576040517f08c379a000000000000000000000000000000000000000000000000000000000815260040161045790611f43565b60405180910390fd5b600260008573ffffffffffffffffffffffffffffffffffffffff1673ffffffffffffffffffffffffffffffffffffffff16815260200190815260200160002060000154600260008673ffffffffffffffffffffffffffffffffffffffff1673ffffffffffffffffffffffffffffffffffffffff168152602001908152602001600020600101549250925050915091565b606081600260008273ffffffffffffffffffffffffffffffffffffffff1673ffffffffffffffffffffffffffffffffffffffff16815260200190815260200160002060030160009054906101000a900460ff16610582576040517f08c379a000000000000000000000000000000000000000000000000000000000815260040161057990611f43565b60405180910390fd5b600360008473ffffffffffffffffffffffffffffffffffffffff1673ffffffffffffffffffffffffffffffffffffffff168152602001908152602001600020805480602002602001604051908101604052809291908181526020016000905b828210156106c357838290600052602060002090600402016040518060800160405290816000820154815260200160018201548152602001600282015481526020016003820180546106329061238a565b80601f016020809104026020016040519081016040528092919081815260200182805461065e9061238a565b80156106ab5780601f10610680576101008083540402835291602001916106ab565b820191906000526020600020905b81548152906001019060200180831161068e57829003601f168201915b505050505081525050815260200190600101906105e1565b50505050915050919050565b6000600260008373ffffffffffffffffffffffffffffffffffffffff1673ffffffffffffffffffffffffffffffffffffffff16815260200190815260200160002060030160009054906101000a900460ff169050919050565b60008054906101000a900473ffffffffffffffffffffffffffffffffffffffff1673ffffffffffffffffffffffffffffffffffffffff163373ffffffffffffffffffffffffffffffffffffffff16146107b6576040517f08c379a00000000000000000000000000000000000000000000000000000000081526004016107ad90612043565b60405180910390fd5b600073ffffffffffffffffffffffffffffffffffffffff168173ffffffffffffffffffffffffffffffffffffffff161415610826576040517f08c379a000000000000000000000000000000000000000000000000000000000815260040161081d90611f23565b60405180910390fd5b600260008273ffffffffffffffffffffffffffffffffffffffff1673ffffffffffffffffffffffffffffffffffffffff16815260200190815260200160002060030160009054906101000a900460ff16156108b6576040517f08c379a00000000000000000000000000000000000000000000000000000000081526004016108ad90611f83565b60405180910390fd5b6001600260008373ffffffffffffffffffffffffffffffffffffffff1673ffffffffffffffffffffffffffffffffffffffff16815260200190815260200160002060030160006101000a81548160ff0219169083151502179055506000600260008373ffffffffffffffffffffffffffffffffffffffff1673ffffffffffffffffffffffffffffffffffffffff168152602001908152602001600020600001819055506000600260008373ffffffffffffffffffffffffffffffffffffffff1673ffffffffffffffffffffffffffffffffffffffff16815260200190815260200160002060010181905550600067ffffffffffffffff8111156109e2577f4e487b7100000000000000000000000000000000000000000000000000000000600052604160045260246000fd5b604051908082528060200260200182016040528015610a105781602001602082028036833780820191505090505b50600260008373ffffffffffffffffffffffffffffffffffffffff1673ffffffffffffffffffffffffffffffffffffffff1681526020019081526020016000206002019080519060200190610a66929190611740565b508073ffffffffffffffffffffffffffffffffffffffff167f54db7a5cb4735e1aac1f53db512d3390390bb6637bd30ad4bf9fc98667d9b9b960405160405180910390a250565b33600260008273ffffffffffffffffffffffffffffffffffffffff1673ffffffffffffffffffffffffffffffffffffffff16815260200190815260200160002060030160009054906101000a900460ff16610b3d576040517f08c379a0000000000000000000000000000000000000000000000000000000008152600401610b3490611f43565b60405180910390fd5b60008311610b80576040517f08c379a0000000000000000000000000000000000000000000000000000000008152600401610b7790612003565b60405180910390fd5b60008211610bc3576040517f08c379a0000000000000000000000000000000000000000000000000000000008152600401610bba90612023565b60405180910390fd5b81341015610c06576040517f08c379a0000000000000000000000000000000000000000000000000000000008152600401610bfd90611f03565b60405180910390fd5b81341115610ccd5760008234610c1c91906122db565b905060003373ffffffffffffffffffffffffffffffffffffffff1682604051610c4490611e74565b60006040518083038185875af1925050503d8060008114610c81576040519150601f19603f3d011682016040523d82523d6000602084013e610c86565b606091505b5050905080610cca576040517f08c379a0000000000000000000000000000000000000000000000000000000008152600401610cc190611fe3565b60405180910390fd5b50505b60008060009054906101000a900473ffffffffffffffffffffffffffffffffffffffff1673ffffffffffffffffffffffffffffffffffffffff1683604051610d1490611e74565b60006040518083038185875af1925050503d8060008114610d51576040519150601f19603f3d011682016040523d82523d6000602084013e610d56565b606091505b5050905080610d9a576040517f08c379a0000000000000000000000000000000000000000000000000000000008152600401610d9190611fc3565b60405180910390fd5b600260003373ffffffffffffffffffffffffffffffffffffffff1673ffffffffffffffffffffffffffffffffffffffff16815260200190815260200160002060020184908060018154018082558091505060019003906000526020600020016000909190919091505582600260003373ffffffffffffffffffffffffffffffffffffffff1673ffffffffffffffffffffffffffffffffffffffff1681526020019081526020016000206001016000828254610e55919061222b565b925050819055506000600460003373ffffffffffffffffffffffffffffffffffffffff1673ffffffffffffffffffffffffffffffffffffffff1681526020019081526020016000206000815480929190610eae906123bc565b919050559050600360003373ffffffffffffffffffffffffffffffffffffffff1673ffffffffffffffffffffffffffffffffffffffff16815260200190815260200160002060405180608001604052808381526020018681526020014281526020016040518060400160405280600781526020017f537563636573730000000000000000000000000000000000000000000000000081525081525090806001815401808255809150506001900390600052602060002090600402016000909190919091506000820151816000015560208201518160010155604082015181600201556060820151816003019080519060200190610fac92919061178d565b5050503373ffffffffffffffffffffffffffffffffffffffff167fbf8fafb673ff47e19af2d0354b6642c45e316a2b0fec3700ef3d195bf112a684868642604051610ff9939291906120fe565b60405180910390a25050505050565b606081600260008273ffffffffffffffffffffffffffffffffffffffff1673ffffffffffffffffffffffffffffffffffffffff16815260200190815260200160002060030160009054906101000a900460ff1661109a576040517f08c379a000000000000000000000000000000000000000000000000000000000815260040161109190611f43565b60405180910390fd5b600260008473ffffffffffffffffffffffffffffffffffffffff1673ffffffffffffffffffffffffffffffffffffffff16815260200190815260200160002060020180548060200260200160405190810160405280929190818152602001828054801561112657602002820191906000526020600020905b815481526020019060010190808311611112575b5050505050915050919050565b60008054906101000a900473ffffffffffffffffffffffffffffffffffffffff1673ffffffffffffffffffffffffffffffffffffffff163373ffffffffffffffffffffffffffffffffffffffff16146111c1576040517f08c379a00000000000000000000000000000000000000000000000000000000081526004016111b890612043565b60405180910390fd5b81600260008273ffffffffffffffffffffffffffffffffffffffff1673ffffffffffffffffffffffffffffffffffffffff16815260200190815260200160002060030160009054906101000a900460ff16611251576040517f08c379a000000000000000000000000000000000000000000000000000000000815260040161124890611f43565b60405180910390fd5b60008211611294576040517f08c379a000000000000000000000000000000000000000000000000000000000815260040161128b90611fa3565b60405180910390fd5b6000600154836112a49190612281565b905082600260008673ffffffffffffffffffffffffffffffffffffffff1673ffffffffffffffffffffffffffffffffffffffff16815260200190815260200160002060000160008282546112f8919061222b565b9250508190555080600260008673ffffffffffffffffffffffffffffffffffffffff1673ffffffffffffffffffffffffffffffffffffffff1681526020019081526020016000206001016000828254611351919061222b565b925050819055506000600460008673ffffffffffffffffffffffffffffffffffffffff1673ffffffffffffffffffffffffffffffffffffffff16815260200190815260200160002060008154809291906113aa906123bc565b919050559050600360008673ffffffffffffffffffffffffffffffffffffffff1673ffffffffffffffffffffffffffffffffffffffff16815260200190815260200160002060405180608001604052808381526020018481526020014281526020016040518060400160405280600781526020017f5375636365737300000000000000000000000000000000000000000000000000815250815250908060018154018082558091505060019003906000526020600020906004020160009091909190915060008201518160000155602082015181600101556040820151816002015560608201518160030190805190602001906114a892919061178d565b5050508473ffffffffffffffffffffffffffffffffffffffff167fd9b6526e1bd2c00f1252bb4e6680e9514f7f3c408c09a8053b6aaf578f814dfa8584426040516114f5939291906120fe565b60405180910390a25050505050565b60046020528060005260406000206000915090505481565b60026020528060005260406000206000915090508060000154908060010154908060030160009054906101000a900460ff16905083565b60015481565b6003602052816000526040600020818154811061157557600080fd5b9060005260206000209060040201600091509150508060000154908060010154908060020154908060030180546115ab9061238a565b80601f01602080910402602001604051908101604052809291908181526020018280546115d79061238a565b80156116245780601f106115f957610100808354040283529160200191611624565b820191906000526020600020905b81548152906001019060200180831161160757829003601f168201915b5050505050905084565b60008054906101000a900473ffffffffffffffffffffffffffffffffffffffff1673ffffffffffffffffffffffffffffffffffffffff163373ffffffffffffffffffffffffffffffffffffffff16146116bc576040517f08c379a00000000000000000000000000000000000000000000000000000000081526004016116b390612043565b60405180910390fd5b600081116116ff576040517f08c379a00000000000000000000000000000000000000000000000000000000081526004016116f690612063565b60405180910390fd5b806001819055507f7ac16b5565c9cd5929aa61a1f0891087d1105caadf19b89210abbb7292f12c42816040516117359190612083565b60405180910390a150565b82805482825590600052602060002090810192821561177c579160200282015b8281111561177b578251825591602001919060010190611760565b5b5090506117899190611813565b5090565b8280546117999061238a565b90600052602060002090601f0160209004810192826117bb5760008555611802565b82601f106117d457805160ff1916838001178555611802565b82800160010185558215611802579182015b828111156118015782518255916020019190600101906117e6565b5b50905061180f9190611813565b5090565b5b8082111561182c576000816000905550600101611814565b5090565b60008135905061183f81612474565b92915050565b6000813590506118548161248b565b92915050565b60006020828403121561186c57600080fd5b600061187a84828501611830565b91505092915050565b6000806040838503121561189657600080fd5b60006118a485828601611830565b92505060206118b585828601611845565b9150509250929050565b6000602082840312156118d157600080fd5b60006118df84828501611845565b91505092915050565b600080604083850312156118fb57600080fd5b600061190985828601611845565b925050602061191a85828601611845565b9150509250929050565b60006119308383611df3565b905092915050565b60006119448383611e56565b60208301905092915050565b6119598161230f565b82525050565b600061196a826121a1565b61197481856121dc565b93508360208202850161198685612181565b8060005b858110156119c257848403895281516119a38582611924565b94506119ae836121c2565b925060208a0199505060018101905061198a565b50829750879550505050505092915050565b60006119df826121ac565b6119e981856121ed565b93506119f483612191565b8060005b83811015611a25578151611a0c8882611938565b9750611a17836121cf565b9250506001810190506119f8565b5085935050505092915050565b611a3b81612321565b82525050565b6000611a4c826121b7565b611a568185612209565b9350611a66818560208601612357565b611a6f81612463565b840191505092915050565b6000611a85826121b7565b611a8f818561221a565b9350611a9f818560208601612357565b611aa881612463565b840191505092915050565b6000611ac060158361221a565b91507f496e73756666696369656e74204554482073656e7400000000000000000000006000830152602082019050919050565b6000611b0060148361221a565b91507f496e76616c6964207573657220616464726573730000000000000000000000006000830152602082019050919050565b6000611b4060138361221a565b91507f55736572206e6f742072656769737465726564000000000000000000000000006000830152602082019050919050565b6000611b8060208361221a565b91507f44697265637420455448207472616e7366657273206e6f7420616c6c6f7765646000830152602082019050919050565b6000611bc060178361221a565b91507f5573657220616c726561647920726567697374657265640000000000000000006000830152602082019050919050565b6000611c00601c8361221a565b91507f5573616765206d7573742062652067726561746572207468616e2030000000006000830152602082019050919050565b6000611c4060198361221a565b91507f4661696c656420746f2073656e642045544820746f20495350000000000000006000830152602082019050919050565b6000611c806000836121fe565b9150600082019050919050565b6000611c9a60158361221a565b91507f4661696c656420746f2073656e6420726566756e6400000000000000000000006000830152602082019050919050565b6000611cda600f8361221a565b91507f496e76616c696420706c616e20494400000000000000000000000000000000006000830152602082019050919050565b6000611d1a601c8361221a565b91507f5072696365206d7573742062652067726561746572207468616e2030000000006000830152602082019050919050565b6000611d5a601f8361221a565b91507f4f6e6c79204953502063616e2063616c6c20746869732066756e6374696f6e006000830152602082019050919050565b6000611d9a60228361221a565b91507f436f737420706572204d42206d7573742062652067726561746572207468616e60008301527f20300000000000000000000000000000000000000000000000000000000000006020830152604082019050919050565b6000608083016000830151611e0b6000860182611e56565b506020830151611e1e6020860182611e56565b506040830151611e316040860182611e56565b5060608301518482036060860152611e498282611a41565b9150508091505092915050565b611e5f8161234d565b82525050565b611e6e8161234d565b82525050565b6000611e7f82611c73565b9150819050919050565b6000602082019050611e9e6000830184611950565b92915050565b60006020820190508181036000830152611ebe818461195f565b905092915050565b60006020820190508181036000830152611ee081846119d4565b905092915050565b6000602082019050611efd6000830184611a32565b92915050565b60006020820190508181036000830152611f1c81611ab3565b9050919050565b60006020820190508181036000830152611f3c81611af3565b9050919050565b60006020820190508181036000830152611f5c81611b33565b9050919050565b60006020820190508181036000830152611f7c81611b73565b9050919050565b60006020820190508181036000830152611f9c81611bb3565b9050919050565b60006020820190508181036000830152611fbc81611bf3565b9050919050565b60006020820190508181036000830152611fdc81611c33565b9050919050565b60006020820190508181036000830152611ffc81611c8d565b9050919050565b6000602082019050818103600083015261201c81611ccd565b9050919050565b6000602082019050818103600083015261203c81611d0d565b9050919050565b6000602082019050818103600083015261205c81611d4d565b9050919050565b6000602082019050818103600083015261207c81611d8d565b9050919050565b60006020820190506120986000830184611e65565b92915050565b60006040820190506120b36000830185611e65565b6120c06020830184611e65565b9392505050565b60006060820190506120dc6000830186611e65565b6120e96020830185611e65565b6120f66040830184611a32565b949350505050565b60006060820190506121136000830186611e65565b6121206020830185611e65565b61212d6040830184611e65565b949350505050565b600060808201905061214a6000830187611e65565b6121576020830186611e65565b6121646040830185611e65565b81810360608301526121768184611a7a565b905095945050505050565b6000819050602082019050919050565b6000819050602082019050919050565b600081519050919050565b600081519050919050565b600081519050919050565b6000602082019050919050565b6000602082019050919050565b600082825260208201905092915050565b600082825260208201905092915050565b600081905092915050565b600082825260208201905092915050565b600082825260208201905092915050565b60006122368261234d565b91506122418361234d565b9250827fffffffffffffffffffffffffffffffffffffffffffffffffffffffffffffffff0382111561227657612275612405565b5b828201905092915050565b600061228c8261234d565b91506122978361234d565b9250817fffffffffffffffffffffffffffffffffffffffffffffffffffffffffffffffff04831182151516156122d0576122cf612405565b5b828202905092915050565b60006122e68261234d565b91506122f18361234d565b92508282101561230457612303612405565b5b828203905092915050565b600061231a8261232d565b9050919050565b60008115159050919050565b600073ffffffffffffffffffffffffffffffffffffffff82169050919050565b6000819050919050565b60005b8381101561237557808201518184015260208101905061235a565b83811115612384576000848401525b50505050565b600060028204905060018216806123a257607f821691505b602082108114156123b6576123b5612434565b5b50919050565b60006123c78261234d565b91507fffffffffffffffffffffffffffffffffffffffffffffffffffffffffffffffff8214156123fa576123f9612405565b5b600182019050919050565b7f4e487b7100000000000000000000000000000000000000000000000000000000600052601160045260246000fd5b7f4e487b7100000000000000000000000000000000000000000000000000000000600052602260045260246000fd5b6000601f19601f8301169050919050565b61247d8161230f565b811461248857600080fd5b50565b6124948161234d565b811461249f57600080fd5b5056fea2646970667358221220af9035a9af266b84eeaa74489c71af54ee8a19e4692ee3bafc637ca7acbe48bf64736f6c63430008000033",
  "linkReferences": {},
  "deployedLinkReferences": {}
}